:020000041000EA
:1000000000B5324B212058609868022188439860DF
:10001000D860186158612E4B002199600221596106
:100020000121F02299502B49196001219960352056
:1000300000F044F80222904214D00621196600F024
:1000400034F8196E01211966002018661A6600F04E
:100050002CF8196E196E196E052000F02FF8012189
:100060000842F9D1002199601B49196000215960AB
:100070001A491B48016001219960EB211966A021F2
:10008000196600F012F800219960164914480160C1
:100090000121996001BC002800D000471248134993
:1000A000086003C880F30888084703B5996A0420EC
:1000B0000142FBD001200142F8D103BD02B5186610
:1000C0001866FFF7F2FF186E186E02BD00000240BE
:1000D000000000180000070000035F00212200005C
:1000E000F4000018222000A00001001008ED00E03C
:1000F00000000000000000000000000074B24E7A12
:1001000000200420F7010010C3010010C5010010F9
:10011000C1010010C1010010C1010010C101001097
:10012000C1010010C1010010C1010010C701001081
:10013000C1010010C1010010C9010010CB01001065
:10014000CD010010CD010010CD010010CD01001037
:10015000CD010010CD010010CD010010CD01001027
:10016000CD010010CD010010CD010010CD01001017
:10017000CD010010CD010010CD010010CD01001007
:10018000CD010010CD010010CD010010CD010010F7
:10019000CD010010CD010010CD010010CD010010E7
:1001A000CD010010CD010010CD010010CD010010D7
:1001B000CD010010CD010010CD010010CD010010C7
:1001C00000BE00BE00BE00BE00BE00BE00F04BF888
:1001D000103800BEF2EB8871785A01109C5A011059
:1001E0003402001090A31AE700202149086006C8D5
:1001F00081F3088810471F48006800282FD10DA4FC
:100200000ECC002902D000F012F8F9E71A491B4A77
:10021000002000E001C19142FCD1194988471949E9
:1002200088471949884700BEFDE701C901C29A42C3
:10023000FBD370479C5A0110C0000020041000201E
:10024000E06901100000042000000420E0690110B2
:1002500000100420001004200000000070470B482C
:100260000BF0A4FD0047EFF30580C0B2704700001B
:1002700008ED00E0000000D008100020DC25002080
:10028000999700107D130010BD980010575600007C
:1002900006005250ABB36053785301100600525021
:1002A000861C030288530110060052505422A29D5E
:1002B0008C53011005005250DE65F468E0690110AE
:1002C000F8B5C0460448054B10B5834203D0044B33
:1002D000002B00D0984710BD04100020041000200F
:1002E0000000000006480749091A8910CB0F591869
:1002F00010B5491003D0044B002B00D0984710BD17
:1003000004100020041000200000000010B5074C6D
:100310002378002B09D1FFF7D5FF054B002B02D026
:10032000044800E000BF0123237010BD101000201E
:100330000000000010420110054B10B5002B03D047
:100340000449054800E000BFFFF7CCFF10BDC046E0
:10035000000000001410002010420110012A05D0F6
:10036000022A01D10B680360002070470160FBE79F
:1003700010B5831E1B88C01A02F060FA10BDC0467B
:1003800010B5040018680B68126821689B00920081
:10039000C9180DF04DFB002010BDC04670B5041EFD
:1003A0000ED000290CD0451C481902F03FFA031E5C
:1003B00006D0401964422040821EC31A138070BDCB
:1003C0000020FCE710B504000F2107F08DFF00228C
:1003D0002000002107F0A0FF0021200007F0B6FF59
:1003E00010BDC04682B0F0B55746DE464E46454683
:1003F000E0B585B08A4603921100013A0F93D30FFE
:100400009B185A10012319400F9B07000193109B62
:10041000009202919B46924500DB73E0564680466F
:10042000751C6F007B1EDC002D0145444444696847
:10043000606899460DF0B0F9F6004644002808D0EF
:10044000230006CB06C6009B4B4557DD4F463E00BA
:10045000E6E72B0006CB06C6009BBB42F7DC3C0060
:100460004746029B002B0ED1039A023AD30F9B18EA
:100470005B10A34207D164000134E300FB181A00AB
:1004800003CA03C51D00621ED30F9B185B1099465B
:10049000544525DDDB00FE185946706898460DF07E
:1004A00091F900281CD03D0041464F460BE0DA0090
:1004B000AE18594670683C0091461F000DF082F955
:1004C00000280CD049468846E4002C190CCE0CC4F8
:1004D0007A1ED30F9B185B10A844BA45E7DB45464C
:1004E000019B2B605B466B6005B03CBC9046994617
:1004F000A246AB46F0BC08BC02B0184725004746F0
:100500004C46AEE75346DD00029B45195446002B8E
:10051000AAD0E5E7F8B557464E46DE464546894639
:10052000E0B5070088423DD008239A4682448A45B8
:1005300038D055460CE0AF4204D0EA1B5046390093
:1005400013F05EFE434608353B607E60A94529D026
:100550006E682B687968301C98460DF033F90028D6
:10056000E9D12C002B1F1968301C083C0DF02AF92A
:10057000002801D11CE05C4623002200083303CA96
:1005800003C308235B429B46A3445B46301C596867
:100590000DF018F90028EED1434666602360083557
:1005A000A945D5D13CBC90469946A246AB46F8BD7C
:1005B0002C00434666602360F1E7C046F0B557461D
:1005C0004E464546DE46E0B58BB082466846C37669
:1005D0005046049203910D000E1A802E00DCC3E0F9
:1005E000002A00D1D1E00823534405930793130058
:1005F000013B04935346ED1AED10EB0F5D19534682
:10060000DB686D109846039BED001E1F3368554450
:10061000994653461B686F689B465346391C4046B3
:100620005C680DF0CFF84946002846D0381C0DF024
:10063000C9F8002800D09EE0494640460DF0C2F8B7
:10064000002845D15346059A03CA03C35A46059369
:1006500053469A60DC6034685346079D5F68039E8A
:100660006B68391C181CA94698460DF0ABF8002899
:1006700021D10823201C5B42391C9B4634000DF01D
:100680008BF8B344103C00282DD02600083C391CC0
:10069000E0680DF081F80028F7D1AE4226D92A0093
:1006A00031002B6811C911C2336043467360534651
:1006B0005F68331F1C680835D2E740460DF082F8AA
:1006C0000028BFD14946381C0DF07CF8002852D0D4
:1006D000039B5246083B190021C921C205925A4684
:1006E0001A603460B8E75E46AE42D8D86B46049ACA
:1006F000DB7E03992800FFF761FF5346EE1A802E38
:1007000032DD049B0395002B00D071E7F610B71E75
:100710007F10FC00544408AD00E0013F22002B0094
:1007200003CA03C36B68320000932B68390050463C
:10073000FFF758FE083C002FEFD14C465646083CC8
:1007400022002B0003CA03C32300320003CA03C3E1
:100750006B68A71B0093FA102B6800213000FFF78D
:1007600041FE083C082FEBDC0BB03CBC90469946A0
:10077000A246AB46F0BD53462A0003CA03C3059305
:100780005B466C602B60346866E78946BEE7C0460E
:10079000FEE7C046F0B5DE464E4645465746E0B554
:1007A0008DB00D00079181466A499068546810F039
:1007B000E5FC431E9841022240420240013206926B
:1007C000AA68696813004B43002B00D0B7E04B4682
:1007D0001B690393002B7BD0A300059300239A464B
:1007E00004938022039BD2009846934200D99046FE
:1007F0004046059B0121584302F01CF80190002857
:1008000000D19AE0049A4B46099242469B680A92AC
:100810000B90002B00D19BE048460BAB0AAA09A91C
:10082000C468A047039B002B41D0079B1C68069B14
:10083000032B55D0534600250027FF269B00E318C5
:100840000293019B013758590DF026F801239C466D
:100850000400000A3040E2440CF0C5FF3E490CF0B1
:1008600062FF3E490CF062FF8346200C30400CF0E2
:10087000BAFF39490CF057FF39490CF057FF011CFA
:1008800058460CF04DFF8346200030400CF0ABFF83
:1008900031490CF048FF33490CF048FF011C584621
:1008A0000CF03EFF029B58510435B845C9D842466A
:1008B000039B01989B1A039301F0C0FF8022D20092
:1008C00094464A46049B1269634404939A4288D82A
:1008D00000200DB03CBC90469946A246AB46F0BD08
:1008E000019B00279B465346FF269B00E4185B466E
:1008F00001CB01379B460CF0CFFF0500000C3040C8
:100900000CF071FF14490CF00EFF2060280A3040F3
:100910000CF069FF10490CF006FF0323606028000B
:100920009C463040E2440CF05EFF0B490CF0FBFEAD
:10093000A0600C344745DAD3B9E70B48C9E70B4848
:1009400001F050FF0A48002101F04CFF0948C0E7C0
:10095000FFF71EFF1042011000007F43A245163F23
:100960008716993ED578E93D16FCFFFF1C42011021
:100970003442011014FCFFFFF0B5454657464E4681
:10098000DE46E0B587B0109D81466C08013488468C
:1009900017009C4200D075E0A800012101F04AFF39
:1009A000824600286CD02E00454567D8B300984693
:1009B0001A00494650460DF03BF84046AA1B9200EB
:1009C00000215044E4000DF02DF8200001F02EFF2E
:1009D000029000285BD005AB009300220023002189
:1009E000280004F0B5FA039000284DD0029B514630
:1009F0009B461A0004F082FB5B46B9469846A34426
:100A0000434618680CF04EFF4346040058680D003A
:100A10000CF048FF220006000F002B0020002900E8
:100A20000BF08AFC320004000D003B00300039005E
:100A30000BF082FC0B000200290020000BF06AFC86
:100A40000BF0A2FD0BF094FD4B4601C39946082321
:100A50009C46E044C345D3D1039801F0EFFE0298D1
:100A600001F0ECFE0024504601F0E8FE200007B043
:100A70003CBC90469946A246AB46F0BD464695E73B
:100A8000044CF3E7044CF1E7029801F0D7FE014C67
:100A9000E9E7C04616FCFFFF11FCFFFFF0B5DE469C
:100AA000574645464E46E0B59A46436887B004002F
:100AB0000D009346012B00D0B9E04B68012B00D00C
:100AC000B5E09368012B00D0B1E0534658685368F5
:100AD000013B984200D0AAE053469B68012B00D00E
:100AE000A5E0A3688A68934200D0A0E080000121BD
:100AF00001F0A0FE0190002875D05B465B680121E3
:100B0000581E800001F096FE0090002800D190E071
:100B10005A465268AB68013A02939046002B2FD098
:100B20002B68524603932368059204930023994649
:100B30009B009A465246039B9E584346002B16D074
:100B40005B46002400251F68AD00311C78590CF06D
:100B500029FE002806D07B19311C58680CF032FEA3
:100B6000002849D10134A4B225004445ECD34B46BA
:100B7000029A01339BB299469342D9D3059B9A4678
:100B80004346002B27D053461B6800249946002378
:100B900000259A46464607E05B4652460134A4B219
:100BA0001A602500B44216D2AD00AB46009B00216E
:100BB0005F59CB44381C0CF0E7FD0028ECD1019BB9
:100BC000391C58590CF0AFFD5B460134A4B21860D3
:100BD0002500B442E8D3009801F030FE00240198CB
:100BE00001F02CFE00E0144C200007B03CBC904605
:100BF0009946A246AB46F0BD5246019B5C19049B48
:100C0000206899580CF08CFD009BFE219C462060CA
:100C10006544286889050CF083FD4B46029A013330
:100C20009BB228609946934200D281E7A6E7034C25
:100C3000DAE7014CD3E7C04616FCFFFF14FCFFFFC8
:100C4000F0B54546DE4657464E46E0B58DB00493B6
:100C500016AB14001A88436888460292012B00D014
:100C600012E14B68012B00D00EE152088B6808920C
:100C700092B2511C0793934609918B4200D003E135
:100C80006268012A00D0FFE0A268934200D0FBE036
:100C90000768002F74D043461B68002B70D0236870
:100CA000002B6DD08668029B9E4265D300D91E0042
:100CB000180005930121800001F0BCFD030006909F
:100CC000011E5DD0059A002A09D0013A92B2043182
:100CD00092005218FE21890502C39A42FCD1029863
:100CE0000CF086FD051CFE20049980050CF01BFD10
:100CF000011C281C0CF01AFD011CFE2080050CF0C4
:100D000012FDB24625685E460024B946071C200045
:100D10000CF069FD391C0CF009FD0134A4B201C5C9
:100D2000A642F4D20121042001F084FDB3464F46CF
:100D30005646824600282CD030000CF054FD03901B
:100D4000002E2BD04C460020B500ED1902CC0CF043
:100D5000E7FCA542FAD103990CF0E5FC5346051CCB
:100D600018604B46291C18680CF0D7FC4B4601C391
:100D700099469C42F5D117E0B3B20593300099E74C
:100D8000544C20000DB03CBC90469946A246AB4660
:100D9000F0BD504C069801F051FDF2E7011C002017
:100DA0000CF0C1FC53461860079C0121E00001F0E3
:100DB00041FD089B814601339C4200D087E0029BA5
:100DC000B34263D99800012101F034FD051E72D0B1
:100DD000B400220039000CF02BFE029F2819BA1B28
:100DE000920000210CF01EFE0BAB00930023380094
:100DF0001A00190004F0ACF8041E59D04A46290024
:100E000004F07CF9200001F019FD280001F016FD26
:100E100043461D686B4605989F8C0CF0E9FC0499CD
:100E20000CF084FC011CFE2080050CF07CFC4C4680
:100E30000026B8460390002221686368081C62609F
:100E400002930CF073FC029B0490191C181C0CF00C
:100E50006DFC011C04980CF063FC03990CF066FC1B
:100E6000B3452DD0011C0CF05BFC0136B6B22060FE
:100E700001C50834BE42DED1484601F0DFFC002443
:100E8000504601F0DBFC85E7134C7AE718000BAB0A
:100E9000009300220023002104F05AF8041E0AD017
:100EA0004A46390004F02AF9200001F0C7FCAFE7F8
:100EB000280001F0C3FC074C484601F0BFFCDFE707
:100EC0002060464601C50834B845B4D1D4E7034C88
:100ED000F2E7C04616FCFFFF14FCFFFF11FCFFFF0A
:100EE000F0B5DE464E4645465746E0B5050083B0B0
:100EF00082480C00934606F06BFF061E00D0F2E01D
:100F000001F05AFC0190002007F04EF80700002085
:100F100007F050F87A4B80461A78002A00D01E70ED
:100F20006968AA683B78514300290AD0092B60D030
:100F300000232D6878689A00AE58013386508B42A2
:100F4000F9D307F041F801F037FC019BC11A5B4669
:100F5000E162002B2BD143461B78092B66D0434618
:100F60005A6813686360674B196821605168E160D3
:100F70005968A160916861619968DB682161D268F4
:100F8000A361E261604807F041F801F013FC831CA3
:100F900000D1AFE001F00EFC831C00D1AAE00020DC
:100FA00003B03CBC90469946A246AB46F0BD5748BC
:100FB00001F018FC43461B78092B6FD0544B0025D9
:100FC0009A46544B4F4F994643465B6879595E5950
:100FD000504601F007FC301C01F01CFC484601F0B3
:100FE00001FC7B590435236066600834102DEBD179
:100FF000C8E700262A68B3009858F9680CF093FBFC
:101000000CF0A4FC7B688246994638690CF0F0FB32
:1010100051460CF085FB0CF00DFC4B469855AB6827
:101020006A6801365343B342E4D88AE743465B68B3
:101030000020994643461F69DE684B461856C01B80
:101040000CF0D6FB311C0CF071FB2E4D2B68606050
:10105000236001204B461856C01B0CF0C9FB311C05
:101060000CF064FB6B68E060A36002204B461856EE
:10107000C01B0CF0BDFB311C0CF058FBAB68606171
:10108000236103204B461856C01B0CF0B1FB311CEA
:101090000CF04CFBEB68E061A36173E71C4B00258F
:1010A0009A461C4B174E994643465B685857434631
:1010B0001B690135C01A0CF09BFB4346D9680CF044
:1010C00035FB3168071C504601F08CFB381C01F0E1
:1010D000A1FB484601F086FB08CE67602360083418
:1010E000042DE1D14EE701000B4801F07BFB062007
:1010F000404255E70220404252E7C0469D0300109F
:10110000D8030020DC03002071030010D444011038
:10111000F444011074420110A04401102B4A2C4BDE
:10112000526870B59A422AD12A4806F051FE041E30
:1011300044D101F041FB002006F036FF05000020FD
:1011400006F038FF244B1A78002A00D01C702B7848
:10115000092B14D101F030FB6B68002B12D0212237
:1011600001211E4801F03EFB00211D4801F03AFB21
:101170001C481D4901F036FB0520404270BD092086
:101180004042FBE70121212001F054FB21220121F3
:101190000400124801F026FB0021114801F022FB57
:1011A0001048114901F01EFB05204042002CE5D0FB
:1011B000200001F043FB05204042DFE701000B481F
:1011C00001F010FB06204042D8E7C046EC030020A7
:1011D000950700109D030010D80300201C42011049
:1011E000344201102444011014FCFFFFA0440110FC
:1011F000F0B54E464546DE465746E0B5564C16001D
:10120000564B62688BB081460D009A4200D170E067
:1012100001270121842001F00DFB02AB1F73212364
:1012200002900493039701F0C7FA23688246984618
:1012300063680193A3689B464346212B00D973E062
:10124000029B002B67D00693002306AC2373012377
:10125000636043465A46A3602100414B4846019FC4
:10126000B847002866D101F0A5FA831C00D170E0D0
:101270002068002802D0237B002B42D101F09CFA89
:101280005346C11AA962002E14D12900320002A8C7
:10129000FFF726FE05000298002803D002AB1B7B57
:1012A000002B2BD128000BB03CBC90469946A2469F
:1012B000AB46F0BD2B4801F095FA049B0193002B3F
:1012C00010D00024284F029B0193019AA300985844
:1012D00001F0A0FA380001F085FA049B0134019373
:1012E000A342F0D8214801F07DFA214801F07AFAB2
:1012F000CBE73200FFF712FF0500D3E701F09EFABB
:10130000D0E701F09BFA01F057FA5346C11AA962DF
:10131000002EBAD0CEE743460121980001F08AFAA8
:1013200006AC0690277392E70525124801F05AFA99
:101330006D42B0E7010005250F4801F053FA6D42F8
:1013400006980028A7D0237B002BA4D001F076FAC2
:10135000A1E70500F4E7C046EC0300209507001064
:101360000000A8419843011060440110744201102C
:1013700064440110AC43011024440110F0B5DE4672
:1013800057464E464546E0B5A24C0427A5440CF00E
:1013900007FE192006F0EEFFD02380221B069204E0
:1013A0005A629A610EF0B4FF1A20FFF70BF81B2067
:1013B000FFF708F81C20FFF705F818AB03930BABF9
:1013C0009946954801F00EFAFA20C00007F09CFCFF
:1013D000D02380221B0692045A61904801F002FA41
:1013E000FC220021520003980CF01CFB18AB98461D
:1013F0008B4C039301F0F2F90BF076F8894A8A4B93
:101400000AF088FF0BF09CF8E0222368D201134019
:10141000864A00900191136000239A46844B8026EF
:101420000A259B4676005B461F6023683342FCD04A
:10143000636801201B041B0C013D9A4407F064FC07
:10144000002DF0D10A2150460AF00AFD0CF0CBF92C
:1014500078490CF06BF978490CF05FF94346186055
:10146000802322685B015340E022D20113406F4A7F
:101470008026136000239A466D4B0A359B46760002
:101480005B461F6023683342FCD0636801201B0465
:101490001B0C013D9A4407F037FC002DF0D10A21C6
:1014A00050460AF0DDFC0CF09EF962490CF03EF962
:1014B00061490CF032F943465860802322689B0151
:1014C0005340E022D2011340584A80261360002383
:1014D0009A46574B0A359B4676005B461F60236849
:1014E0003342FCD0636801201B041B0C013D9A446D
:1014F00007F00AFC002DF0D14346504918680CF063
:1015000015F943464D49186058680CF00FF94346E9
:101510000A21586050460AF0A3FC0CF064F94549D2
:101520000CF004F944490CF0F8F844490CF0FEF8CA
:101530004346986001F052F9009A019B121A8B41C0
:101540001900100007F0C8FB0C239C4696ABE04442
:10155000984500D04EE77E234A460A93039B0B939F
:1015600004AB03CA03C3082204A906A80CF060FA5E
:10157000334B34220893334B0021484609930CF037
:1015800051FA0022494606A8FFF732FE00282BD167
:101590002D4801F027F94B464A4649464C461B6BFD
:1015A000D26A896A294801F01DF9294801F01AF91F
:1015B000284D13AE60680CF075F902000B0028008E
:1015C0002168083401F00EF9A642F3D1D02380221D
:1015D0001B0692049A61089B002B00D1F1E606A934
:1015E000032208009847ECE601001B4801F0FAF8D6
:1015F000089B002B03D006A903220800984701206E
:1016000097239B009D443CBC90469946A246AB461E
:10161000F0BDC046A4FDFFFFE042011008430110E9
:1016200000C00440836118866140E74000D0044058
:1016300000E004403333533A3333D33F0AE81C41CC
:101640005D030010810300103C4301104C43011066
:10165000844301108843011018430110F0B5574628
:101660004546DE464E46E0B5436805689B465B1B33
:1016700083B0060088469246DB104F1B002B05D036
:101680005A00934239D90824644201E00122D4006F
:1016900020000CF0D3F9230081464B44019373687A
:1016A00035689B4643465C1B53464F4406CB06C7F2
:1016B000454504D022002900484612F0A1FD5B46B2
:1016C000424608344C449F1AC34504D03A00414670
:1016D00020000CF0ADF9E419002D02D028000CF028
:1016E000B5F94B463360019B7460B36003B03CBCFA
:1016F00090469946A246AB46F0BD044B9A42C2D8EA
:10170000002AC4D13C0001929146CDE7FFFFFF1FA4
:10171000F0B5DE46574645464E46E0B5B9B00A93A9
:1017200042AB069204CB83461B780B92079344ABE3
:101730001B888A46099345AB1A78436808929846F5
:101740004B68984500D08FE0479B52005B680C9235
:1017500081680132002B6FD1914200D084E0479B19
:101760009B680293012B00D07EE043469B00012141
:101770001800059301F05EF8051E04905FD05246F4
:1017800052681092904500D083E04246002A00D172
:10179000FCE1524697682E0038000CF024F85246BF
:1017A000AC461468BA009146059B039063440D94BF
:1017B0000293002F4CD04B4600201D1902CC0BF099
:1017C000AFFFA542FAD103990BF0ADFF029B01C612
:1017D0002C00B342EDD1002642464846B0460D9952
:1017E00043468946434399444B46002B42D04346E7
:1017F00004999B00CE58002F10D0002302934D4631
:1018000000242868311C0BF088FF013401C5BC425C
:10181000F7D3029B002B29D153465A6801239C46DB
:10182000E044904501D300F0E9FC53469F681B68F3
:10183000B8000D931900D3E7013BD2188CE7DD4CBB
:10184000200039B03CBC90469946A246AB46F0BD5C
:10185000002003994C440BF066FF2500029B01C653
:101860002C00B342A5D1B6E7D34CE9E7484600F0D7
:10187000E5FFD1E7012100F0DDFF8146002808D017
:101880004346049A9B00D658002FEFD001230293C1
:10189000B5E7C94C049800F0D1FFD1E74346002BCF
:1018A00000D173E1079B0B985E1011960BF0FAFFC5
:1018B000C24AC34B0AF040FD040006980D000BF02D
:1018C000F1FF02000B00200029000AF02CFD0AF0B5
:1018D0009DFE0AF04DFE0BF0E5FF0B00020020908C
:1018E00021910AF029FD0AF043FEB3000B93002377
:1018F00012935B46249353461E901A931A9B119C95
:101900001A689B681C92129A1F939B005A430421E9
:1019100020002393229200F08DFF042102902000EA
:1019200000F088FF04210390200000F083FF0421D1
:101930000A90200000F07EFF04218246200000F083
:1019400079FF04218046200000F074FF8146002CBE
:1019500000D1FCE007980AF067FD02000B000AF0D6
:10196000D9FC149015912098219902000B000AF0DF
:10197000D1FC16901791FE201E9C8005211C0BF0B7
:10198000CCFE0BF08FFF02000B000AF0C3FC189096
:101990001991201C0BF086FF0E900F9100210D91E4
:1019A0004146029B0A9A9B46039B269149469046D4
:1019B000994627910D980AF037FD02000B000AF0B6
:1019C000A9FC00227F4B0AF0A5FC7C4A7C4B0AF064
:1019D000B3FC149A159B0AF0A6FC0AF001FE0AF06B
:1019E000C7FD0BF05FFF169A179B0AF0A5FC0E9A35
:1019F0000F9B06000F000AF08DFC724B00220AF0CC
:101A000089FC0AF0B5FD041C011C1E980BF08BFE2E
:101A10005A4601C2201C93460BF044FF02000B0003
:101A200004000D00189819990AF07DFC0AF0A0FD39
:101A30004A4601C23B000E980F99914632000AF0C7
:101A400060FC00225F4B0AF065FC2200040080204D
:101A500000062B000D18290020000AF064FC0AF093
:101A600087FD42460D9B01C29046119A01330D93AA
:101A70009A429FD1269B9846279B99461F9B002BF5
:101A800065D01C9B229A1D009446239965448C4680
:101A9000634494469C4463460D932B004546984608
:101AA0000024039B295918590BF040FE4B46195945
:101AB0000A9B061C18590BF039FE011C301C0BF058
:101AC0002FFE434619680BF02BFE534618518346F0
:101AD00028590BF0E7FE02000B000AF01BFC060081
:101AE00058460F000BF0DEFE02000B0030003900FC
:101AF0000AF010FC4B46060018590F000BF0D2FEFE
:101B000002000B00300039000AF004FC029B0600C2
:101B100018590F000BF0C6FE02000B003000390010
:101B20000AF00AFC0AF024FD434618604B462A5985
:101B30001A5153461B592B510B9B0434A342B0D16D
:101B400004239C460D9BE0444345A9D1A846029836
:101B500000F074FE039800F071FE0A9800F06EFE2B
:101B6000504600F06BFE404600F068FE484600F02C
:101B700065FE1A9A129B52680133129302929A429E
:101B800000D9BBE6249B9B461A9B9A4601210598E7
:101B900000F050FE0790002809D05346109A5B6869
:101BA000934211D0044C079800F048FE72E6014CB5
:101BB00070E6C04616FCFFFF14FCFFFF182D4454CE
:101BC000FB2109400000F03F002A2FD0079B574619
:101BD000984600231E00BD68002D00D104E32B00B1
:101BE0003A68734392469C005B199B009A44002319
:101BF0009946141901CC011C0BF098FD011C4846B4
:101C00000BF08EFD8146A245F4D128000BF0EBFDD0
:101C1000011C48460BF087FD0BF04EFE434601C306
:101C200098467B680136B342D5D8BA4610980C9BCB
:101C300001215843800000F0FDFD1490002800D1E0
:101C4000D0E253465B68002B00D17DE2099B580827
:101C5000421C0D9292000A920C9A119092001692D8
:101C60005A109446531E1293D34B1E926344089A03
:101C70009B001C9311000A2359438B0018910121EA
:101C80001A93079B0E91109383002293D300209305
:101C900053000133002A00D00E930E9B56469B0042
:101CA0002393002305933268B4689446A00043430D
:101CB0006344002B00D169E22893002326AA137500
:101CC000013329932A9401210A9800F0B3FD021EE2
:101CD000039000D158E22A9B099C0293289B009410
:101CE0000B9302990D9B0B98FEF746FE002800D03F
:101CF00048E220000BF077FD011C8020C0050BF0AE
:101D000012FDFE218905071C0BF03EFD002800D1C5
:101D100050E20121169800F08DFD0B90002800D1B3
:101D200046E201210A9800F085FD0290002800D1CA
:101D30002DE1FE20069980050BF0F5FC011C0BF04F
:101D4000EFFC011CFE2080050BF0EDFC1E9B051C2A
:101D5000002B00D118E11E9B012B00D0B5E0002321
:101D6000029A136001211A9800F064FD0C9000287B
:101D700000D109E1039B1A689246119A012A3ED9C3
:101D80001F1D01239946330000244E46994606E064
:101D90003D681F9E119B0437AA46B3422DD93D686A
:101DA000731C5146281C1F930BF00CFD0028F0D02B
:101DB0007B68281C191C98460BF004FD0028E8D00D
:101DC0005146281C0BF0A9FC41468246281C0BF00A
:101DD000A4FC011C50460BF0A3FC00210BF0F2FC0C
:101DE0000028D6D030000BF0FEFC0C9BA500E8507C
:101DF0000134189BA4B2A342CAD14E4600E000248D
:101E000030AB9846002300259A4634AF34957D6068
:101E1000BD60A5422ADA0C9AAB00914699444B4624
:101E200018680BF039FD4346029A800082581A6008
:101E30004B4618680BF030FD039B8000C1584346A9
:101E4000469859600BF0BEFC002803D0434652462A
:101E50001A605A607968BB68994252D00B004246BA
:101E600003CA03C37B600135EDB2D2E7359B349DD5
:101E70009A465C1BE0109D4252D009F091FF1F234F
:101E80001A1A5200002351462800FEF797FB802CB7
:101E90005DDD2C00803421002800FEF73BFBB146BD
:101EA000A24539D0236825001F93636898462E0009
:101EB000083D696840460BF085FC002826D02B00C1
:101EC0002A00083303CA03C3F1E712980BF08BFC16
:101ED000011C281C0BF027FC00248046029F2000D8
:101EE0000BF081FC41460BF021FC00210BF018FCAB
:101EF000129B013401C7A342F1D1029B1C9A9D5051
:101F000030E742463800FFF7A9FBACE71F9B0834D7
:101F1000336043467360C3E7359B4E469A46349D13
:101F200053465C1B00239846E41030AD089BA34247
:101F30001AD9434679682B606B60BB6899420ED012
:101F40000B002A0003CA03C37B600134EEE751464D
:101F50002800FEF7DFFA359B349D9A46E0E72A0019
:101F60003800FFF77BFBF0E734980B9B02001D0065
:101F70000021089C8C4223D9146801311C605468EC
:101F800008325C600833F4E7029800F057FC0B4C11
:101F90000B9800F053FC039800F050FC28980028A0
:101FA00005D026AB1B7D002B01D000F047FC149818
:101FB00000F044FCF7E5C046FFFFFF3F14FCFFFFC5
:101FC000002801D00BF042FD0C9800F037FC02987D
:101FD00000F034FC0A9B01211800984600F02AFC0E
:101FE0002422012426AB9B181C700D9B2C902D9451
:101FF0002E93002800D1D9E00121404600F01AFCC0
:10200000342126AA0D9B52183090147031943293CB
:10201000002800D1C8E0099B30AA0093069B2CA998
:1020200028A89946FEF70CFE002800D0A8E001225F
:10203000479B52425B6894469846E044029343466D
:102040000121980000F0F6FB434638603C737B604A
:10205000BC6000287AD04B46479A009330A93B00D9
:102060002CA8FEF71BFD002800D0B1E05B469B6862
:102070009C00059B5C435B461B689C46109B64442C
:102080001B6802932360089B002B0BD0209A231D12
:102090000432A21829681960696808355960083344
:1020A0009A42F7D17B683D68002B16D0BA68A946E2
:1020B00092009246239A90460E9AA0449446634416
:1020C0009B00E4184B464A4918680BF02CFB43462A
:1020D00001C39846D144A342F4D1002D05D03B7BE7
:1020E000002B02D0280000F0A9FB3098002807D070
:1020F000342226AB9B181B78002B01D000F09EFBEE
:102100002C98002807D0242226AB9B181B78002B84
:1021100001D000F093FB0B9800F090FB039800F0C7
:102120008DFB2898002805D026AB1B7D002B01D005
:1021300000F084FB109A059B043210927268013300
:1021400005939A4200D9AEE5002430E7294C309837
:10215000002807D0342226AB9B181B78002B01D017
:1021600000F06CFB2C98002800D111E7242226AB4C
:102170009B181B78002B00D10AE700F05FFB07E7F4
:102180000400E4E71C4C06E71A4C07E7012100F0C5
:1021900051FB012326AA2890137529932A9400281D
:1021A00000D090E5134C02E7124CDBE7114CEFE650
:1021B000104CF0E6039B9C461C00229B1D1D6544B1
:1021C0002068391C0BF0B2FA01C4A542F8D1A0E591
:1021D000040038680028BAD03B7B002BB7D000F051
:1021E0002DFBB4E7034CDEE4002399460DE5C04621
:1021F0000000204116FCFFFF14FCFFFF0A9B9046E5
:10220000012B01D1FFF74AFB0A9B022B00D0BDE452
:102210004346002B00D1B9E4079B0B985E1016963D
:102220000BF040FBB24AB34B0AF086F80400069864
:102230000D000BF037FB02000B00200029000AF014
:1022400072F80AF0E3F90AF093F90BF02BFB0B009C
:102250000200249025910AF06FF80AF089F9B30082
:102260000B93002314935B46D346269027935B463B
:102270001B68149A22935B469B68169C20939B00D4
:102280005A43042120001F93239200F0D3FA042123
:102290000290200000F0CEFA04210390200000F00C
:1022A000C9FA04210A90200000F0C4FA04218246F1
:1022B000200000F0BFFA04218046200000F0BAFAA6
:1022C0008146002C00D1F3E007980AF0ADF8020037
:1022D0000B000AF01FF81890199124982599020014
:1022E0000B000AF017F81A901B91FE20269C80051F
:1022F000211C0BF012FA0BF0D5FA0B0002000AF0C9
:1023000009F81C901D91201C0BF0CCFA029B129036
:1023100013911E93039B11930A9B0E9300230D931D
:102320000D980AF081F802000B0009F0F3FF00227B
:10233000714B09F0EFFF6E4A6E4B09F0FDFF189AE2
:10234000199B09F0F0FF0AF04BF90AF011F90BF0B4
:10235000A9FA1A9A1B9B09F0EFFF129A139B04002B
:102360000D0009F0D7FF644B002209F0D3FF0AF0FB
:10237000FFF8061C011CFE2080050BF0D4F91E9A04
:1023800001C2301C1E920BF08DFA02000B000600F9
:102390000F001C981D9909F0C6FF0AF0E9F8119A80
:1023A0002B0001C2119212981399220009F0A9FF83
:1023B0000022514B09F0AEFF0400802000060D18EA
:1023C00032003B002000290009F0ADFF0AF0D0F8F0
:1023D0000E9A0D9B01C201330E920D93169A9A42EA
:1023E0009ED1209B002B63D0229B239A1D009446F4
:1023F0001F9965448C46634494469C4463460D9300
:102400002B00454698460024039B295918590BF088
:102410008DF94B4619590A9B061C18590BF086F981
:10242000011C301C0BF07CF9434619680BF078F95D
:10243000534618510BF036FA060028590F000BF0DE
:1024400031FA02000B0009F065FF02000B003000BA
:10245000390009F056FF4B46060018590F000BF0E3
:1024600021FA02000B003000390009F053FF029BF3
:10247000060018590F000BF015FA02000B0030008F
:10248000390009F059FF0AF073F8434618604B46CB
:102490002A591A5153461B592B510B9B0434A34202
:1024A000B2D104239C460D9BE0444345ABD1A846E2
:1024B000029800F0C3F9039800F0C0F90A9800F000
:1024C000BDF9504600F0BAF9404600F0B7F9484669
:1024D00000F0B4F95A46149B5268013314939A429F
:1024E00000D9C4E6279BDA469B46FFF74FFBC04660
:1024F000182D4454FB2109400000F03FF0B5DE46A2
:10250000454657464E46E0B5BDB00E9393680791D9
:102510009A46D36804000C931369006909935369C0
:1025200014AD0D9393690A93D3690893136A0B93BF
:10253000536A069353689B46190009F091FC5B4669
:10254000060098007043012100F074F901232B73F9
:102550005B4614906E60AB60002800D117E1002349
:102560001193236913901293A368002B00D110E1FB
:1025700011A9E66813AB12AA2000B047FE2150460D
:1025800089050BF001F9002864D02B686E68994624
:102590003300AC6863439B0098460121404600F03D
:1025A00049F98246031E4CD0002C11DD002E0FDDB0
:1025B0004946A400B60060180A008C469F191168AD
:1025C000121902C3BB42FAD1614604318142F3D1F0
:1025D0004246514648460BF02BFA504600F02EF981
:1025E00080206B682A891B041B0C012140006A6053
:1025F000AB6000F01FF9442101230AAA521813709E
:102600004022189019920600403200211CA81A930B
:102610000BF008FA06980EF0F5FD7F2839D95E4FC9
:10262000002E00D074E01498002802D02B7B002BE1
:102630000DD138003DB03CBC90469946A246AB4611
:10264000F0BD5649564800F0CDF8544FEBE700F086
:10265000F5F8EEE76E68AC68330063432A6891468C
:10266000002B99D09B0098461300170043445A460C
:10267000B3465646A2461C000F923868311C0BF038
:1026800055F801C7BC42F8D10F9B5E4654469B46A5
:1026900083E7020006991CA80BF0CAF90023002763
:1026A0001E001CAC20000DF06DFE189B01369846F4
:1026B00009F05EFF4346D85102E02378002B06D094
:1026C000237801342C2BF8D10437002CEAD13300C5
:1026D000464698461993089B41465A0043469B1824
:1026E000002900D1531C079A916852680C000F9280
:1026F00054435A465A43069194420DD0294F002E16
:1027000091D044220AAB9B181B78002B00D18AE79A
:10271000300000F093F886E7079A0C9E9360130050
:102720005A4621495A6030000EF028FD0123002846
:102730001FD118AA05920B9A202104926A465218BA
:102740001278143103926A46128D079802926A46F3
:102750005218127829000192099A00920E9AFEF7F7
:10276000D7FF071E0DD10123079A189E946053606E
:10277000C5E70E4930000EF001FD434243415B00C6
:10278000D7E701000A4800F02DF8189EB7E7034F7D
:102790004FE7FDF7FDFFC04610FCFFFF16FCFFFFF3
:1027A0007842011014FCFFFFA0420110A442011066
:1027B000AC4201100020704710B506F00DFC002956
:1027C00005D1FA21890009F04BFB002110BDFA2246
:1027D0000023920009F08AFBF7E7C04610B506F027
:1027E000FBFB10BD0FB4802110B582B004AB084CC8
:1027F00004CBC9002000019309F094FA002802DDFF
:1028000020000BF0C1FB02B010BC08BC04B018479C
:102810007414002010B50BF045F802000B000248BC
:10282000FFF7E0FF10BDC0463845011010B50BF0B2
:10283000E5F810BD10B50BF0E5F810BD10B50BF0C4
:10284000E5F810BDF0B54E46DE4657464546E0B5C4
:1028500005008420400084468FB094440893526859
:10286000DB00EE180C92F21891466446C8000A90FC
:1028700008010B90480041184B44C90002940D9187
:102880009B46009401949246B14613E04B461E606D
:1028900058605B46039A1A6042465A600822944682
:1028A000089B0835013B0893E144E244E344002BD4
:1028B00000D1DFE04B461E68029B311C1A685C6841
:1028C00090464A46404657680AF030FF391C03904C
:1028D000201C0AF02BFF011C03980AF01EFF414642
:1028E0000390381C0AF022FF311C071C201C0AF040
:1028F0001DFF011C381C0AF013FF52461668019A8E
:102900000490116854688846514640464F68311C0F
:102910000AF00CFF391C0590201C0AF007FF011C6F
:1029200005980AF0FAFE41460590381C0AF0FEFEB2
:10293000311C071C201C0AF0F9FE011C381C0AF08F
:10294000EFFE59465E460F68009976680C68B046FF
:1029500006904E68201C391C07940AF0E7FE414699
:10296000041C301C0AF0E2FE011C201C0AF0D5FEFB
:102970000799041C40460AF0D9FE391C8046301CD9
:102980000AF0D4FE011C40460AF0CAFE2E68071C5D
:102990000599301C09960AF0C0FE6A68061C069963
:1029A000101C90460AF0B9FE0599079009980AF0A4
:1029B000B7FE06990990286040460AF0B1FE0399D7
:1029C00006906860201C0AF0ABFE04990590381C44
:1029D0000AF0A6FE211C804603980AF09EFE391CD0
:1029E000041C04980AF099FE0599071C09980AF03E
:1029F00094FE52464146106006980AF08EFE5246FA
:102A000050600A98029B844663440293019A0B9B90
:102A100005999C46624401920D9A009B9446286851
:102A2000634400930AF07CFE4146286068680AF01F
:102A300077FE311C6860381C0AF072FE211C03907E
:102A400007980AF06AFE391C8046301C0AF065FEC1
:102A50000799061C201C0AF063FE0C9B002B00D07B
:102A600014E74B46039A1A6042465A605B461E6062
:102A7000586013E70FB03CBC90469946A246AB465F
:102A8000F0BDC046F0B54546DE4657464E46E0B579
:102A90008BB08246069318004B432133DB00D318DA
:102AA0005B685546099384235B0098469044CA00AE
:102AB00007920A0108925246C300D4189946434629
:102AC000C346A14401932368676898465B461E6825
:102AD0005B68311C40469A460AF028FE5146029037
:102AE000381C0AF023FE011C02980AF016FE51461B
:102AF000029040460AF01AFE391C8046301C0AF04B
:102B000015FE011C40460AF00BFE4B461B684A4668
:102B10009846019B57681E685A68311C03904046CE
:102B200092460AF003FE51460490381C0AF0FEFD5E
:102B3000011C04980AF0F1FD5146049040460AF049
:102B4000F5FD391C8046301C0AF0F0FD011C4046A2
:102B50000AF0E6FD0499824602980AF0E1FD51462A
:102B6000059003980AF0DCFD079A019B9446089AA9
:102B7000E344944663440193804628680AF092FE39
:102B8000060005980F000AF08DFE0022314B09F077
:102B9000D3FB02000B003000390009F0B2FB09F052
:102BA000E7FC206068680AF07DFE060040460F00E2
:102BB0000AF078FE0022274B09F0BEFB02000B0052
:102BC0003000390009F09DFB09F0D2FC04996060E7
:102BD00002980AF0A2FD099F391C0AF0A7FD514690
:102BE000061C03980AF099FD391C0AF09FFD05990F
:102BF000071C28680AF094FD4146286068680AF0BE
:102C00008FFD68602068391C0AF08AFD4B46186009
:102C10006068311C0AF081FD4B465860391C206801
:102C20000AF07BFD311C206060680AF079FD082203
:102C30009446069B6060013B083506930834E144E6
:102C4000002B00D03FE70BB03CBC90469946A24613
:102C5000AB46F0BD0000E03FF0B54546DE465746C6
:102C60004E461C00E0B59BB015934B43093280469D
:102C70000290FF32D80013181D680C955D681B1870
:102C800003951D685B680D950E93E3009B46180045
:102C90009844C3445844844663440193002C00DCA8
:102CA000BDE1CB0018934B000C015B181794DC00BE
:102CB0000023DA468146C3464901049219941691CD
:102CC00005920692079214935946029C0E68236857
:102CD00062680893049B4D681C68301C211C5F6867
:102CE00009920AF023FD391C8046281C0AF01EFDBB
:102CF000011C40460AF011FD391C0F90301C0AF0EF
:102D000015FD291C061C201C0AF010FD011C301C9E
:102D10000AF006FD5146079A0E6814684D68109037
:102D2000211C301C57680AF001FD391C8046281C04
:102D30000AF0FCFC011C40460AF0EFFC391C119023
:102D4000301C0AF0F3FC291C061C201C0AF0EEFCC7
:102D5000011C301C0AF0E4FC494609684E468846CE
:102D6000069977680D684E68041C291C40460A962F
:102D70000AF0DCFC0A99061C381C0AF0D7FC011C7E
:102D8000301C0AF0CAFC0A99061C40460AF0CEFC28
:102D9000391C8046281C0AF0C9FC011C40460AF078
:102DA000BFFC019B051C1F68381C059F12903968E9
:102DB0007F68884659680B970A9141460AF0B6FC2D
:102DC0000B99071C0A980AF0B1FC011C381C0AF088
:102DD000A4FC0B99071C12980AF0A8FC0A990B9006
:102DE00040460AF0A3FC011C0B980AF099FC391C20
:102DF0000B900F980AF094FC0B99804610980AF0FB
:102E00008FFC391C0A900F980AF087FC0F900B99E1
:102E100010980AF082FC311C109011980AF080FC86
:102E2000291C0B90201C0AF07BFC311C071C1198FC
:102E30000AF073FC291C1190201C0AF06EFC0B9EFA
:102E40001290311C40460AF06BFC08990AF068FCAD
:102E5000029C391C20600A980AF062FC09990AF069
:102E60005FFC0C9D6060291C404602940AF05EFCE9
:102E700008990AF055FC0D99041C301C0B960AF0B9
:102E800055FC011C201C0AF04BFC291C061C0A984E
:102E90000C950AF04BFC09990AF042FC0D99041CB0
:102EA000381C0AF043FC011C201C0AF039FC039971
:102EB000051C10980AF03AFC0E99041C12980AF0AE
:102EC00035FC011C201C0AF02BFC80240399139074
:102ED0000F980AF02BFC240604190E9911980AF099
:102EE00025FC011C201C0AF018FC1399041C301C42
:102EF0000AF013FC5A46211C1060281C0AF00DFC35
:102F00005A4613995060301C0AF00AFC019E211C9D
:102F10003060281C0AF004FC0D9D7060291C40469E
:102F200001960AF003FC08990AF0FAFB0C9B041CBA
:102F3000191C0B9898460AF0F9FB011C201C0AF09A
:102F4000EFFB291C041C0A980AF0F0FB09990AF00F
:102F5000E7FB4146051C381C0AF0E8FB011C281C55
:102F60000AF0DEFB0399051C12980AF0DFFB0E9BAA
:102F7000061C191C109898460AF0D8FB011C301C3E
:102F80000AF0CBFB4146061C0F980AF0CFFB0399D1
:102F9000071C11980AF0CAFB011C381C0AF0BDFB83
:102FA000311C071C201C0AF0BBFB5246391C106068
:102FB000281C0AF0B5FB5246311C5060201C0AF058
:102FC000ACFB4A46391C1060281C0AF0A6FB4D4693
:102FD000686008208446029CE34408340294189CEC
:102FE000E244E144A446049B019E63440493179B7E
:102FF00014989C46079A0836624401300196149052
:103000000792199B06999C46169B61449C46059F16
:10301000159B674406910597834200D054E61BB088
:103020003CBC90469946A246AB46F0BDF0B5DE46A4
:1030300057464E464546E0B505008420400084468C
:103040009444604691B0059010680F0006901A985D
:103050000E91C40020001E000F93FFF7E7FB0890BD
:10306000002E00DC88E03A008446002372430B9572
:103070006444F500099504940A920C930D931A9BED
:10308000002B6BDD089A0B9B0498099C190060C902
:1030900060C21B199042F9D10C9B03930B9B9B467A
:1030A00000235E4607933300089C06CC06C31A9B98
:1030B000012B45D0002573683768B3462E001D1CD0
:1030C000039B9C46069B6644B34200DCF61A059AB5
:1030D000236894469846F30063441A685B689246F6
:1030E000626841465046019391460AF01FFB4946EB
:1030F000029001980AF01AFB011C02980AF00DFBDD
:10310000011C381C0AF00CFB5A4651461060071C83
:1031100048460AF00BFB4146814601980AF006FB3F
:10312000011C48460AF0FCFA011C281C0AF0F8FAB7
:103130005B465860049B0834051C9C42C0D15E4627
:10314000099A0A99944666448C46039A079B6244FE
:1031500003921A9A013307939A42A4D10E990B9ABB
:103160008C4608320B920C9A0D9B62440C920F9A7B
:1031700001330D939A4282D10898FFF75FFB11B09B
:103180003CBC90469946A246AB46F0BDF0B5DE4643
:1031900057464E464546E0B5AFB0389C1F00A346A3
:1031A0005D46060024686D6821946C430E93E3002D
:1031B000299018003B00B44653436044DC0017914B
:1031C0002A92189527902894012D26D133000A00C1
:1031D000110060C960C312199842F9D1219B032BD9
:1031E00000D150E300DCE0E2042B0FD0052B00D02F
:1031F00041E3189B399A2A992998FFF72DFD2FB0A2
:103200003CBC90469946A246AB46F0BD189B399A05
:103210002A992998FFF716FBF1E71300219A5343E7
:103220000E9A2C93D1001A00DB002B93189B4A4373
:10323000DB002D93299B2591119328235B44229237
:1032400015935B465A469B68D2681B93534311996A
:10325000DB0018008C4660440D922090012A28D192
:103260000B00179A229C110060C960C31219984282
:10327000F9D11B9B032B00D1E7E200DC2DE2042BEC
:1032800000D1F1E2052B00D0E6E20D9B399A2C9992
:103290001198FFF7E1FC289A179B94462D9A6344F6
:1032A00094461793119B279A634411939A42C8D16D
:1032B00094E71B9A2C9B5343259A24935A43DB0093
:1032C00023930D9B1C92DB002693179B1293119B5B
:1032D0000A935B465A461B6952690F9353430A99F6
:1032E000DB0018008C46604408921A90012A28D10D
:1032F0000B00129A1C9C110060C960C312199842FD
:10330000F9D10F9B032B00D139E200DC7DE1042BC6
:1033100000D143E2052B00D038E2089B399A24996A
:103320000A98FFF799FC229A129B9446269A6344C6
:10333000944612930A9B209A63440A939A42C8D1F6
:1033400097E70F9A249B5343259A1E935A43DB0019
:103350001D93089B1392DB001F93129B0B930A9BF8
:1033600006935B465A469B69D26909935343069973
:10337000DB0018008C46604405921090012A28D189
:103380000B000B9A139C110060C960C3121998427C
:10339000F9D1099B032B00D198E100DCD4E0042B88
:1033A00000D18CE1052B00D081E1059B399A1E9953
:1033B0000698FFF751FC1C9A0B9B94461F9A634496
:1033C00094460B93069B1A9A634406939A42C8D17B
:1033D00097E7099A1E9B5343259A16935A43DB009D
:1033E0001493059B0C92DB0019930B9B0793069B90
:1033F00003935B461E6A5B6A99461C00039B4A4620
:103400009C467443E4006444012A25D1079A0C9831
:103410001100A0C9A0C312189C42F9D1032E38D0C4
:10342000032E3DDD042E00D1E8E0052E00D0DDE0C6
:103430004B46399A16990398FFF70EFC139A079B8F
:103440009446199A634494460793039B109A6344E5
:1034500003939A42CDD19CE71D00169B079F7343AF
:103460009A46D30098465346B2461E00399B39000F
:103470000193159B2800009332000E9BFFF786FEF8
:103480000C9B45449C466744AC42EFD15646032E04
:10349000C6D14B46399A16990398FFF7F3FACDE750
:1034A000022E00D0A2E04B46039CDD00A4465B4602
:1034B000399E65440936FF3638932B6872689A4600
:1034C0003368504698466B684146934604930AF029
:1034D0002DF95946071C04980AF028F9011C381CDC
:1034E0000AF01BF95946071C50460AF01FF90499C7
:1034F000824640460AF01AF9011C50460AF010F9BB
:10350000149B80469C462068391C66440AF005F9E5
:103510002860606841460AF000F968602068391C3C
:103520000AF0FEF84146206060680AF0F9F80123CD
:103530005B429C46E1444B46606008350834002BF2
:10354000BBD1389B9B4679E7022B00D0AFE0059BAF
:10355000069CDD00A4465B46399E65440936FF366D
:1035600038932B689A463368504698466B684146B4
:10357000994673689B460AF0D9F85946071C484695
:103580000AF0D4F8011C381C0AF0C7F85946071C89
:1035900050460AF0CBF84946824640460AF0C6F843
:1035A000011C50460AF0BCF81D9B80469C462068D2
:1035B000391C66440AF0B1F82860606841460AF098
:1035C000ACF868602068391C0AF0AAF8414620600F
:1035D00060680AF0A5F8059B6060013B0835083477
:1035E0000593002BBDD1389B9B46E4E600964B46E5
:1035F000399A16990398FFF719FD1FE74B46399A38
:1036000016990398FFF71EF918E7022B00D0BDE0CA
:10361000089B0A9CDD00A4465B46399E654409363A
:10362000FF3638932B689A463368504698466B6845
:103630004146994673689B460AF078F85946071C3C
:1036400048460AF073F8011C381C0AF066F859461F
:10365000071C50460AF06AF84946824640460AF07E
:1036600065F8011C50460AF05BF8239B80469C4697
:103670002068391C66440AF050F8286060684146AA
:103680000AF04BF868602068391C0AF049F8414696
:10369000206060680AF044F8089B6060013B0835D0
:1036A00008340893002BBDD1389B9B463BE6009322
:1036B000399A059B1E990698FFF7B8FC7BE6059B97
:1036C000399A1E990698FFF7BDF874E6059B399A5A
:1036D0001E990698FFF7D6F96DE6022B00D0BBE0E5
:1036E0000D9B119CDD00A4465B46399E654409365E
:1036F000FF3638932B689A463368504698466B6875
:103700004146994673689B460AF010F85946071CD3
:1037100048460AF00BF8011C381C09F0FEFF594618
:10372000071C50460AF002F849468246404609F016
:10373000FDFF011C504609F0F3FF2B9B80469C4681
:103740002068391C664409F0E8FF2860606841463B
:1037500009F0E3FF68602068391C09F0E1FF414689
:103760002060606809F0DCFF0D9B6060013B08355C
:1037700008340D93002BBDD1389B9B468BE5089BED
:10378000399A24990A98FFF77DF9CCE50093399A84
:10379000089B24990A98FFF749FCC4E5089B399ACD
:1037A00024990A98FFF74EF8BDE5022B63D1299EB4
:1037B000189BB446DC00399D2A9B0935DB00FF3598
:1037C0006444039323689A462B685046984663687E
:1037D000414699466B689B4609F0A8FF5946071C6D
:1037E000484609F0A3FF011C381C09F096FF594612
:1037F000071C504609F09AFF49468246404609F0A8
:1038000095FF011C504609F08BFF039B80469C46A8
:103810003068391C654409F080FF206070684146BB
:1038200009F07BFF60603068391C09F079FF414680
:103830003060706809F074FF189B7060013B0834B9
:1038400008361893002BBDD1D9E40D9B399A2C99D9
:103850001198FFF717F91EE50093399A0D9B2C99E3
:103860001198FFF7E3FB16E50D9B399A2C991198F7
:10387000FEF7E8FF0FE50093399A189B2A992998DB
:10388000FFF7D4FBBBE4189B399A2A992998FFF7D4
:10389000F9F8B4E4F0B557464E46DE46454689464B
:1038A0000100E0B5213185B0C90007000291002B6D
:1038B00000D1F6E0002A00D19EE20800196881429A
:1038C00000D278E29246186053464A461F605A601A
:1038D000380008F0A9FD4B4600900191002B00D163
:1038E00094E0002F25DD84235B005344B946002675
:1038F0001F00300008F098FDBD4ABE4B08F01CFDCB
:10390000009A019B08F00FFD04000D0008F052FE24
:1039100008F02EFE29003860200008F061FE08F053
:1039200027FE013678600837B145E2D10098019949
:103930004F4608F029FE08F0F7FE0022AE4B544631
:1039400055460090019108F041FD80230834103560
:103950000022DB05002800D1B7E00098019908F0AB
:1039600035FD0426002800D081E00123984601336C
:1039700099463100380008F047FA002913D1380081
:10398000310008F041FA266007006060012800DC81
:103990008EE023003100103338002C001D0008F0A9
:1039A00033FA0029EBD0022E00D1A2E1042E00D080
:1039B000A1E14146FA0FBB180B40934200D098E1B9
:1039C000D3194A465F1022606760012F70DD3942CB
:1039D00000D08AE1220049469F10103229606F60B2
:1039E000012F65D041461035394200D00AE2DF1080
:1039F0004B4667612361012F5AD02300203339429F
:103A000000D074E12C0002261D00B8E7002F90DDE5
:103A10005646B8464F460936FF36380008F004FDD2
:103A2000734A764B08F088FC009A019B08F07BFCF7
:103A300004000D0008F0BEFD08F09AFD290030607A
:103A4000200008F0CDFD08F093FD013770600836C6
:103A5000B845E2D10098019947466AE70700266019
:103A60006060012824DD230010332C001D0031008C
:103A7000380008F0C9F90029F0D0022E01D0042E38
:103A800001D13E00F3E70236300008F0CDFC020021
:103A90000B000098019908F099FC0028E7D03E003F
:103AA000E5E70800FEF7C2FE8246002800D00BE7DB
:103AB0000E9B002B01D0029A1A60504605B03CBC08
:103AC00090469946A246AB46F0BD0098019908F091
:103AD0007DFC0426002800D097E001239B4601339B
:103AE00098463100380008F08FF9002970D0022E76
:103AF0002CD0042E00D012E15946FA0FBB180B400F
:103B0000934223D1D31942465F1022606760012F90
:103B1000CEDD394200D06AE1220041469F101032CA
:103B200029606F60012FC3D059461035394200D04B
:103B300066E1DF10434667612361012FB8D023009F
:103B400020332C0002261D00394241D003213800C9
:103B500008F05AF9002900D0F0E00331380008F0ED
:103B600053F903268146266060600128A0DD032109
:103B700008F04AF9002900D021E110239C46A44412
:103B8000634609213800039308F03EF92E60814610
:103B90006860012800DC8BE70321103508F034F958
:103BA000002900D031E138001B3108F02DF92661E1
:103BB00007006061012800DC7AE720340321260039
:103BC00008F022F92C0035000326002900D0A6E0D9
:103BD0003800310008F018F92660070060600128FD
:103BE00000DC65E7230010332C001D0079E7C04698
:103BF000182D4454FB21194000000840FB2119C036
:103C0000022E1ED0042E5ED13E003100380008F096
:103C1000FBF80029F4D13800310008F0F5F82660EF
:103C200007006060012800DC42E723003100103308
:103C300038002C001D0008F0E7F80029EBD0022E18
:103C4000E0D10321380008F0DFF8002949D1033121
:103C5000380008F0D9F80323060098462360606016
:103C6000012800DC24E7032108F0CEF8002900D069
:103C7000B4E0102309313800994608F0C5F84346EE
:103C8000A14406002B606860012800DC10E70321D6
:103C9000103508F0B9F8002900D0BAE038001B311F
:103CA00008F0B2F84346070023616061012800DC98
:103CB000FEE620340321260008F0A6F82C0035008B
:103CC00003260029A7D00236300008F0ADFB020021
:103CD0000B000098019908F079FB002895D03E0070
:103CE00093E700224D4B0526F3E7230010332C0009
:103CF0001D003E003DE60236300008F095FB020054
:103D00000B000098019908F061FB002800D130E613
:103D10003E002EE62B004F46250005261C000236ED
:103D2000300008F081FB02000B000098019908F0B8
:103D30004DFB002800D1D4E63E00D2E600220098D8
:103D40000199364B08F042FB0028F5D105213800D7
:103D500008F05AF800292CD13800053108F054F841
:103D60000523070023606060012800DCA0E6103412
:103D70000521260008F048F82C003500002918D14C
:103D8000052625E70521484608F03EF80029C1D15F
:103D900038000F3108F038F8052307002B60686001
:103DA000012800DC84E60521103508F02DF80029F3
:103DB000E6D00526B3E7186000239A4678E600228D
:103DC00000980199154B103408F000FB0028D9D059
:103DD00023004F462C003E001D0082E623001033D6
:103DE0002C0037001D0000220C4B052671E7230034
:103DF00010332C001D00A9E6196000239A4657E6EF
:103E00001400A3E614003E00B3E54F46039C0326CE
:103E100085E737004C46032655E7C04600001440AE
:103E2000F0B5DE4657464E46454682461023E0B57D
:103E300053449BB00C0093469946914200D1DBE27B
:103E4000C56887682E007E43F6005E44012D00D0D1
:103E5000DFE1130006CC06C39E42FBD1032F00D145
:103E6000F2E1032F01DC00F0B8FC042F01D100F0D7
:103E70007AFD052F01D000F06EFD56460936EB00A5
:103E8000FF36F21811680E915168D218049111682A
:103E900052680F91190059448C469C441092624616
:103EA0009C440392E24662469A440592002D00DC4F
:103EB000A8E11A00D1465244DA468B46069616927D
:103EC0000996089607965346594652461B680E684F
:103ED0000A93069B52681C684D68301C211C5F6861
:103EE0000B9209F023FC391C8046281C09F01EFCAB
:103EF000011C404609F011FC391C1190301C09F0DE
:103F000015FC291C061C201C09F010FC011C301C8F
:103F100009F006FC039B079A1E6814681290211C86
:103F2000301C5D68576809F001FC391C8046281C6C
:103F300009F0FCFB011C404609F0EFFB391C139013
:103F4000301C09F0F3FB291C061C201C09F0EEFBB9
:103F5000011C301C09F0E4FB059A041C1168576829
:103F60008846089940460D684E68291C0C9609F051
:103F7000DDFB0C99061C381C09F0D8FB011C301C19
:103F800009F0CBFB0C99061C404609F0CFFB391C0D
:103F90008046281C09F0CAFB4F46011C404609F028
:103FA000BFFB3F68051C381C099F149039687F6867
:103FB0008846494649680D970C91414609F0B6FB81
:103FC0000D99071C0C9809F0B1FB011C381C09F075
:103FD000A4FB0D99071C149809F0A8FB0C990D90EF
:103FE000404609F0A3FB011C0D9809F099FB391C10
:103FF0008046119809F094FB41460C90129809F004
:104000008FFB391C0D90119809F087FB41461190E8
:10401000129809F082FB311C1290139809F080FB72
:10402000291C8046201C09F07BFB311C071C1398BF
:1040300009F073FB291C1390201C09F06EFB0C9CEB
:1040400041461490201C09F06BFB0A9E5546311C1A
:1040500009F066FB391C28600D9809F061FB0B998B
:1040600009F05EFB68600E9D211C281C0C9409F071
:104070005DFB311C0A9609F053FB4146041C0F9866
:1040800009F054FB011C201C09F04AFB0D99061C89
:10409000281C0E9509F04AFB0B9909F041FB391CCD
:1040A000041C0F9809F042FB011C201C09F038FB8E
:1040B0001299051C049809F039FB1499041C1098F6
:1040C00009F034FB011C201C09F02AFB8024119903
:1040D0001590049809F02AFB2406041913991098E6
:1040E00009F024FB011C201C09F017FB1599041C86
:1040F000301C09F012FB5A46211C1060281C09F0E4
:104100000CFB5A4615995060301C09F009FB4E46CD
:10411000211C3060281C09F003FB0F9D70600C9976
:10412000281C09F003FB0A9909F0FAFA0E9E041CF8
:104130004146301C09F0FAFA011C201C09F0F0FA83
:104140000D99041C281C09F0F1FA0B9909F0E8FA02
:10415000391C051C301C09F0E9FA011C281C09F067
:10416000DFFA1499051C049809F0E0FA109B061C6C
:104170001299181C984609F0D9FA011C301C09F054
:10418000CCFA1199061C404609F0D0FA1399071C85
:10419000049809F0CBFA011C381C09F0BEFA311C56
:1041A000071C201C09F0BCFA039B391C1860281C52
:1041B00009F0B6FA039B311C5860201C09F0ADFAD7
:1041C000059C391C2060281C09F0A7FA60600820B3
:1041D00022008446039B083208330393069B089908
:1041E0000833099F0592079A0693169B10321831DF
:1041F0002037E144E244E3440792089109974B4594
:1042000000D060E61BB03CBC90469946A246AB4647
:10421000F0BDEB00C8465C46A94635000E0003938E
:1042200053460193434631000093200001233A0096
:10423000FEF7ACFF039B08369C466444A542EFD1D1
:104240004D46032F00D00CE62B0052462133DB00F5
:10425000D2185268093B0992842252005244914676
:104260005A46FF3BD4189A464B4607955D46CB46C7
:10427000A24403932368676898465B461E685B68A0
:10428000311C4046994609F051FA49460490381CC1
:1042900009F04CFA011C049809F03FFA49460490D1
:1042A000404609F043FA391C8046301C09F03EFABA
:1042B000011C404609F034FA53461B6852469846A2
:1042C000039B57681E685A68311C0590404691460A
:1042D00009F02CFA49460690381C09F027FA011C0F
:1042E000069809F01AFA49460690404609F01EFA67
:1042F000391C8046301C09F019FA011C404609F0AF
:104300000FFA0699061C049809F00AFA311C814636
:104310000598089609F004FA08229446039B804603
:1043200010332868E344039309F0BCFA06004846BA
:104330000F0009F0B7FA00222E4B07F0FDFF020034
:104340000B003000390007F0DCFF08F011F92060A5
:10435000686809F0A7FA060040460F0009F0A2FAC3
:104360000022244B07F0E8FF02000B003000390068
:1043700007F0C7FF08F0FCF806996060049809F0A0
:10438000CCF9099F391C09F0D1F90899061C059848
:1043900009F0C3F9391C09F0C9F94946071C286816
:1043A00009F0BEF941462860686809F0B9F968600B
:1043B0002068391C09F0B4F9534618606068311C54
:1043C00009F0ABF9534658602068391C09F0A5F98B
:1043D000311C2060606809F0A3F908229446079B0D
:1043E0006060013B083507930834E244002B00D09D
:1043F00040E707E70000E03F0368D800FEF716FA41
:1044000052469668D268844615007543ED00030055
:10441000169003926544012A00D02BE206CC06C315
:104420009D42FBD1032E00D1A0E300DC34E2042E38
:1044300001D100F07EFC052E01D000F072FC514647
:10444000169E0398B4460931C300FF31CA18146898
:104450009C440E945468D2180494146852680F94C3
:1044600064469C44109262469C44039262460592C4
:10447000D518002800DC62E2EA18534618935B4620
:10448000A946A246B3460691179209910891079151
:1044900019935B4651465A461B680E680A93069B61
:1044A00052681C684D68301C211C5F680B9209F033
:1044B0003DF9391C8046281C09F038F9011C40469A
:1044C00009F02BF9391C1190301C09F02FF9291C27
:1044D000061C201C09F02AF9011C301C09F020F9E7
:1044E000039B079A1E6814681290211C301C5D689B
:1044F000576809F01BF9391C8046281C09F016F989
:10450000011C404609F009F9391C1390301C09F0D0
:104510000DF9291C061C201C09F008F9011C301C8F
:1045200009F0FEF8059A041C116857688846089936
:1045300040460D684E68291C0C9609F0F7F80C9956
:10454000061C381C09F0F2F8011C301C09F0E5F8D3
:104550000C99061C404609F0E9F8391C8046281CD5
:1045600009F0E4F84F46011C404609F0D9F83F68CD
:10457000051C381C099F149039687F688846494695
:1045800049680D970C91414609F0D0F80D99071C28
:104590000C9809F0CBF8011C381C09F0BEF80D99F5
:1045A000071C149809F0C2F80C990D90404609F0C8
:1045B000BDF8011C0D9809F0B3F8391C804611981C
:1045C00009F0AEF841460C90129809F0A9F8391C90
:1045D0000D90119809F0A1F841461190129809F038
:1045E0009CF8311C1290139809F09AF8291C804607
:1045F000201C09F095F8311C071C139809F08DF860
:10460000291C1390201C09F088F80C9C414614903A
:10461000201C09F085F80A9E5D46311C09F080F8DF
:10462000391C28600D9809F07BF80B9909F078F88F
:1046300068600E9D211C281C0C9409F077F8311C31
:104640000A9609F06DF84146041C0F9809F06EF8BF
:10465000011C201C09F064F80D99061C281C0E95FD
:1046600009F064F80B9909F05BF8391C041C0F98E9
:1046700009F05CF8011C201C09F052F81299051C85
:10468000049809F053F81499041C109809F04EF896
:10469000011C201C09F044F88024119915900498FD
:1046A00009F044F8240604191399109809F03EF80B
:1046B000011C201C09F031F81599041C301C09F06C
:1046C0002CF85246211C1060281C09F026F852468E
:1046D00015995060301C09F023F84E46211C3060BB
:1046E000281C09F01DF80F9D70600C99281C09F01A
:1046F0001DF80A9909F014F80E9E041C4146301C5E
:1047000009F014F8011C201C09F00AF80D99041C8A
:10471000281C09F00BF80B9909F002F8391C051C4C
:10472000301C09F003F8011C281C08F0F9FF14994B
:10473000051C049808F0FAFF109B061C1299181C1F
:10474000984608F0F3FF011C301C08F0E6FF1199B1
:10475000061C404608F0EAFF1399071C049808F06D
:10476000E5FF011C381C08F0D8FF311C071C201C79
:1047700008F0D6FF039B391C1860281C08F0D0FFF6
:10478000039B311C5860201C08F0C7FF059C391C96
:104790002060281C08F0C1FF6060082022008446C9
:1047A000039B083208330393069B08990833099F3B
:1047B0000592079A0693179B103218312037E1446F
:1047C000E344E244079208910997994500D060E6D6
:1047D000189B9A46199B9B46B1E0022F00D0BAE085
:1047E0005646EC00A9465D460936FF365C44236810
:1047F00072689A46336850469846636841469346C5
:10480000039308F093FF5946071C039808F08EFFA6
:10481000011C381C08F081FF5946071C504608F05F
:1048200085FF03998246404608F080FF011C5046F0
:1048300008F076FF391C8046286808F06EFF20607B
:104840006868414608F069FF60602868391C08F014
:1048500067FF41462860686808F062FF01235B42F9
:104860009C46E1444B466860083608340835002B06
:10487000BDD1C7E4D3009846169F534601934B46DB
:10488000210000933800012332004744FEF77EFCEC
:104890000834BD42F1D1C5E5022E00D041E2039BB0
:1048A000169CDD0053465646A44604935B460936E3
:1048B000FF36654405932B689A4633685046984600
:1048C0006B6841469946736808369B4608F02EFF90
:1048D0005946071C484608F029FF011C381C08F0FF
:1048E0001CFF5946071C504608F020FF49468246E7
:1048F000404608F01BFF011C504608F011FF391C10
:104900008046206808F009FF28606068414608F08A
:1049100004FF68602068391C08F002FF41462060EF
:10492000606808F0FDFE039B6060013B08350834B9
:104930000393002BBFD1049B9A46059B9B4653468D
:10494000169C1A682100D200584609F071F8200020
:10495000FDF774FF56E400972B005246012158469C
:10496000FEF764FB4EE451464968EB000D91594651
:10497000842299460B95CD18EE1852005244B1444A
:104980005C460592CB4603920492B246A94613E0D8
:104990004B461E6058605B46069A1A6042465A6053
:1049A000082294460B9B0834013B0B93E144E244FC
:1049B000E344002B00D125E44B461E68059B311CC7
:1049C0001A685D6890464A464046576808F0AEFE51
:1049D000391C0690281C08F0A9FE011C069808F056
:1049E0009CFE41460690381C08F0A0FE311C071CB6
:1049F000281C08F09BFE011C381C08F091FE524652
:104A00001668049A079011685568884651464046D2
:104A10004F68311C08F08AFE391C0890281C08F0E9
:104A200085FE011C089808F078FE41460890381C65
:104A300008F07CFE311C071C281C08F077FE011CC6
:104A4000381C08F06DFE59465E460F68039976687B
:104A50000D68B04609904E68281C391C0A9508F06C
:104A600065FE4146051C301C08F060FE011C281C38
:104A700008F053FE0A99051C404608F057FE391C01
:104A80008046301C08F052FE011C404608F048FEEB
:104A90002668071C0899301C0C9608F03EFE6268D8
:104AA000061C0999101C904608F037FE08990A90D8
:104AB0000C9808F035FE09990C902060404608F0EB
:104AC0002FFE069909906060281C08F029FE0799BE
:104AD0000890381C08F024FE291C8046069808F02F
:104AE0001CFE391C051C079808F017FE0899071CC6
:104AF0000C9808F012FE524641461060099808F0E2
:104B00000CFE5246059B5060049A08331032059300
:104B10000492039B089918332068039308F000FE61
:104B200041462060606808F0FBFD311C6060381C65
:104B300008F0F6FD291C06900A9808F0EEFD391CD5
:104B40008046301C08F0E9FD0A99061C281C08F074
:104B5000E7FD0D9B002B00D01AE74B46069A1A6022
:104B600042465A605B461E60586019E75246039BF6
:104B7000169908932133DB00D218093BFF3BCC1870
:104B80009946534652680A93099284225B460D0067
:104B9000520052440392A14404920B932368676825
:104BA0009846039B40461E685A68311C924608F09E
:104BB000BDFD51468346381C08F0B8FD011C58461F
:104BC00008F0ABFD51460590404608F0AFFD391C9A
:104BD0008046301C08F0AAFD011C404608F0A0FDEC
:104BE0004A46494612684F689046049A06901668ED
:104BF000516840468B46311C08F098FD5946824664
:104C0000381C08F093FD011C504608F086FD5946FB
:104C10008246404608F08AFD391C8046301C08F068
:104C200085FD011C404608F07BFD514680460598F5
:104C300008F076FD41468346069808F071FD039B17
:104C4000049A08331032079028680393049208F0FE
:104C500029FE060058460F0008F024FE0022BB4B38
:104C600007F06AFB02000B003000390007F049FB37
:104C700007F07EFC2060686808F014FE06000798C4
:104C80000F0008F00FFE0022B04B07F055FB0200AA
:104C90000B003000390007F034FB07F069FC514687
:104CA0006060059808F039FD099F391C08F03EFD49
:104CB0004146061C069808F030FD391C08F036FD08
:104CC0005946071C286808F02BFD0799286068687A
:104CD00008F026FD68602068391C08F021FD4B466D
:104CE00018606068311C08F018FD4B465860206859
:104CF000391C08F012FD311C2060606808F010FDBE
:104D000008229446089B6060013B083508930834EC
:104D1000E144002B00D041E70A9B9A460B9B9B463F
:104D20000DE60096039B524601211698FEF77EF988
:104D300005E68422169E5146B14652005244039B1A
:104D4000059203920492524649680B93DB00994402
:104D50000D9149460E925A46CD18EB18CB46AA46FD
:104D60000F92994613E05B461D6058604B46069AC9
:104D70001A6042465A60082294460B9B0836013B53
:104D80000B93E344E244E144002B00D1D9E05B46BD
:104D90001D68059B291C1A685C6890465A46404667
:104DA000576808F0C3FC391C0690201C08F0BEFCB4
:104DB000011C069808F0B1FC41460690381C08F02A
:104DC000B5FC291C071C201C08F0B0FC011C381C79
:104DD00008F0A6FC52461568049A079011685468BA
:104DE0008846514640464F68291C08F09FFC391CF4
:104DF0000890201C08F09AFC011C089808F08DFC13
:104E000041460890381C08F091FC291C071C201C06
:104E100008F08CFC011C381C08F082FC49464D4609
:104E20000F6803996D680C68A84609904D68201CAE
:104E3000391C0A9408F07AFC4146041C281C08F02E
:104E400075FC011C201C08F068FC0A99041C4046F3
:104E500008F06CFC391C8046281C08F067FC011C1B
:104E6000404608F05DFC3568071C0899281C0C9525
:104E700008F053FC7268051C0999101C904608F054
:104E80004CFC08990A900C9808F04AFC09990C907F
:104E90003060404608F044FC069909907060201C80
:104EA00008F03EFC07990890381C08F039FC211CDA
:104EB0008046069808F031FC391C041C079808F05D
:104EC0002CFC0899071C0C9808F027FC5246414618
:104ED0001060099808F021FC5246059B5060049A26
:104EE0000833103205930492039B089918333068F5
:104EF000039308F015FC41463060706808F010FC20
:104F0000291C7060381C08F00BFC211C06900A98C4
:104F100008F003FC391C8046281C08F0FEFB0A99A7
:104F2000051C201C08F0FCFB0D9B002B00D01AE791
:104F30005B46069A1A6042465A604B461D605860AE
:104F400019E70E9B9A460F9B9B46F8E40000E03F52
:104F5000F0B5454657464E46DE46E0B51D000023F7
:104F600089B00793013303400F0016009846002BC9
:104F700000D0A8E044100093002207AB2000FEF709
:104F800089FC62001219D30F9B18079A5B10DB0093
:104F90000C329B180393002D00D18FE01A002B6870
:104FA000934200D29AE0B3462A605B46002B4DD074
:104FB0005A4659460C321A60079B2000D3184B60A2
:104FC000E1005B1859468B6000233900009307AB62
:104FD000FEF760FCE30F1B195B109A46002F3DD0D3
:104FE000002B2EDD200007F01FFA5B469B680600B1
:104FF0000F00994601239C46E044404607F014FA0E
:1050000032003B0007F08FF90022364B07F082F99F
:10501000354A364B07F090F904000D0007F0CAFA44
:1050200007F0A6FA4B4629001860200007F0D8FACE
:1050300007F09EFA4B46586008239C46E144D04551
:10504000D8D1129B002B01D0039A1A60584609B0A0
:105050003CBC90469946A246AB46F0BD002BF0DD25
:10506000200007F0E1F95B469B68049005919846A3
:105070000137380007F0D8F9049A059B07F053F977
:105080000022184B07F046F9174A194B07F054F95C
:1050900004000D0007F08EFA07F06AFA4346290073
:1050A0001860200007F09CFA07F062FA4346586047
:1050B00008239C46E0445745DAD1C2E71800FDF7C3
:1050C000B5FB834671E70B4B24221B680121DB688B
:1050D00009480BF0E1F900239B46B7E700232A605B
:1050E0009B46B3E70000E03F182D4454FB210940E4
:1050F000FB2109C03006002064450110F0B5574679
:105100004546DE464E46E0B50700006887B0436876
:105110001500002B00D0A4E07A680468FEF780FE3A
:105120007B68E60098461B689A4643465B68504693
:10513000191C9B4608F0F4FAAB19994628605946A9
:10514000504608F0EAFA4B464A46186000236B6066
:105150005360E30F1B195B10002B7BDD32004446CC
:10516000083AB9682E0090448B4647460834DB0065
:10517000E3180836AD18059323687A689A46636881
:10518000514699463B689046181C019308F0C8FAAE
:1051900041460290484608F0C0FA019904905046F2
:1051A00008F0BBFA49468246404608F0B9FA5B4629
:1051B0005A461B685268191C814650460192039357
:1051C00008F0B4FA01998046484608F0AFFA011C8D
:1051D000404608F0A2FA01998046504608F0A6FA27
:1051E00003998246484608F0A1FA011C504608F08F
:1051F00097FA41468146029808F092FAFC21890507
:1052000008F094FA049B3060191C48469A4608F04E
:1052100087FAFC21890508F089FA414670600298F6
:1052200008F07BFAFC21890508F080FA51462860D5
:10523000484608F072FAFC21890508F077FA08233D
:105240009C466860059B0834083FE3440836083DE7
:10525000A34291D107B03CBC90469946A246AB46CA
:10526000F0BD054B25221B680121DB6803480BF0CC
:1052700013F9012004F022FB300600203C45011008
:105280000B2803D8024B8000C05870470148FCE748
:105290008C450110BC450110F8B515001C0000221A
:1052A000002306000F0007F089F8002803D0002330
:1052B0002B602360F8BD2200300039000EF090FF13
:1052C0000022114B07F038F807F0DCF907F018F965
:1052D000002917DC12D0802223681206904206D0E3
:1052E0001F3302DA0023002023602860E2E7002950
:1052F000F6D1802001332360C005F1E780231B062F
:105300009842E8D90BF036F80000E041F0B583B0E0
:10531000009201931F23040001200D0008995B1ADD
:10532000984007F081F8009A019B06000F002000CA
:10533000290007F001F802000B003000390006F0E8
:10534000FBFF294A294B04000D0007F055F8061E03
:1053500015D10022264B2000290007F04DF8002827
:1053600032D0002200232000290007F027F800286F
:1053700007D0099B1E600A9B1E6003B0F0BD1A4C4B
:105380001A4D0A9A200029000EF02AFF0022194B1C
:1053900006F0D2FF07F076F907F0B2F8002913DC27
:1053A0001CD080220A9B12061B6890420ED01A0065
:1053B0001F3205DA00230A9A1360099A1360DCE7AA
:1053C000099A1060002BD8DA0AF0D4FF0029EED138
:1053D00080200A9A01331360C005E8E780231B068A
:1053E0009842DED9F0E7C0460000C0FFFFFFDF4172
:1053F0000000F03F0000E041F8B5CE4601238146B1
:105400004746180098464B46984080B5013816002C
:105410000F0007F009F84B46F21A20235B42040004
:105420000D00D31826D44146994001263000904003
:1054300007F04EF80B0002002900200006F07CFF68
:1054400020235B4204000D00FB1818D43100994062
:105450000120B84007F03CF802000B0020002900B2
:1054600006F061FF07F060F906F0F6FF0CBC90460D
:105470009946F8BD202341469B1AD940D5E7202301
:105480003100DB1BD940E3E7F0B5CE46474680B597
:105490001C00CB6883B09846D36805009946002C61
:1054A00039D0404608F0FEF9060048460F0008F0E3
:1054B000F9F902000B003000390006F03DFF06004C
:1054C000E0680F0008F0EEF902000B003000390030
:1054D00006F017FF0A9B0600D8684C0008F0E2F9B6
:1054E000640802000B003000210006F01CFF1B4A7C
:1054F0001B4B06F071FF00280DD11A4B00939A2325
:105500006C692800184A1949A047012003B00CBC57
:1055100090469946F0BD4946404608F007F90021FB
:10552000041C08F047F9002804D1114B00936C6962
:10553000A723E6E7201C08F0B5F90A9B0400D86809
:105540000D0008F0AFF90B0002002900200006F062
:10555000EAFE0B9B186059600020D7E77B14AE472A
:10556000E17A943FAC460110304601109446011098
:10557000D0460110F0B5C64600B51C00137882B0C5
:10558000032B20D0092B0DD0072B61D0334B344A8D
:1055900000934469DA233349A047012002B004BCD8
:1055A0009046F0BD80257F266D42D36817699846E6
:1055B00001290FD003293BD002291CD0089B25606C
:1055C00000201E60EAE7D368FF2600259846176989
:1055D0000129EFD1191C002008F0A5F808F0B6F950
:1055E00008F028F9C719AF4200DA2F00089B27609E
:1055F00000201E60D2E7191C1B4808F094F808F040
:10560000A5F908F017F9C019A84224DB2060FE2094
:105610004146800508F087F808F098F908F00AF983
:10562000C719B74200DD3700089B00201F60B5E7AF
:10563000191C002008F077F808F088F908F0FAF84B
:10564000C019A84200DA2800206041460748E1E777
:10565000074E084DA9E72800D8E7C046EC460110E0
:105660003046011094460110000080BF0000C04089
:10567000FF7F00000080FFFF002200B583B0019291
:10568000836B01AA14219847012802D0019803B026
:1056900000BD0020FBE7C046F0B5C6460E6800B569
:1056A00073688268070030689D0188B0551900232F
:1056B000022804DDF068441C01D08301D318486837
:1056C00044682878A40184461419207860450ED1D6
:1056D000B668B6019219167886421DD038007B69EB
:1056E00021499847012008B004BC9046F0BD6046AF
:1056F0007D69FFF7C5FD06002078FFF7C1FD1B4B54
:10570000039001931A4B380000930296194B1A4AE2
:105710001A49A8470120E6E70020012EE3D00E69D0
:105720004969002009780094884600210690079175
:1057300006A9019138002900FFF7A6FE0028D2D162
:105740000698079905AB3200FFF7A6FD059B2200DE
:105750005B42736033000C360833009641463800D4
:10576000FFF708FFBFE7C046B44701109847011094
:10577000A8470110EF020000104701107C470110FC
:10578000F0B54E464546DE465746E0B5A3B01E008E
:105790002C9C2D9D012A43D0032A00D130E1022AFE
:1057A00000D141E1A84B9B46A84B0293002E3DD16E
:1057B0000A96002C51D0A76811A808CF9A00109320
:1057C0009146052B07DDA24A4846934200DD22E1BF
:1057D00008F038F911904A46390008F029F9636851
:1057E0000693002D3ED100239A46109B16950893F0
:1057F0002E9B002B50D108991C93079301330593DE
:1058000000208B1E4A1E052974DC10ACA4469B00A8
:10581000920063446244596853680994039371E0A9
:10582000894B9B4600230293002EC1D0B7680BA87A
:1058300008CF9A000A939146052B07DD844A484613
:10584000934200DDE1E008F0FDF80B904A46390094
:1058500008F0EEF87668002CADD100231094069382
:10586000002DC0D0AC6817A808CC16939F00052B5C
:1058700007DD774A3800934200DDD2E008F0E2F815
:1058800017903A00210008F0D3F86B689A46109BF5
:1058900008932E9B002BAED09C681DA808CC1C93AF
:1058A0009D00052B08DD6A4A2800934201DD012096
:1058B000404208F0C7F81D9021002A0008F0B8F80F
:1058C0002E9B58681C9B0793591E052B00DCB1E0EA
:1058D0001F001D9A01231C000023994204D020CAF6
:1058E00001336C439F42F8D1059408998B1E4A1EE0
:1058F00005298ADD10AA0992119A9B00D158D31864
:105900005B680393059B002B4BDD002949DD8B0071
:105910000193039BB0469F00002300900493002353
:105920009946069E039B002B68DD00240025434614
:105930003159185907F0FAFE011C281C07F0F0FE37
:105940000434051CA742F2D15346002B54D04A46DA
:105950009858291C07F0E4FE029D041C291C07F03E
:105960001BFF002800D02C1C5946201C07F02AFFE2
:10597000009B4A4600283DD05946995004239C4636
:10598000019BE144F6194B45CCD10199009A8C4614
:10599000049B62440092059A01330493B8449342F5
:1059A000BDD1079B052B04DD1D98002801D008F010
:1059B00051F8169B052B04DD1798002801D008F03C
:1059C00049F8089B052B05DD099B5868002801D084
:1059D00008F040F80A9B052B04DD0B98002801D045
:1059E00008F038F8002023B03CBC90469946A24607
:1059F000AB46F0BD9C50C1E70020AAE70025A3E715
:105A0000144B9B46002302930EE70120404208F00E
:105A100019F80B901AE70120404208F013F8119092
:105A2000D9E60120404229E7FE239B059B460A4B0D
:105A30000293F9E601230593079B002B00DC54E752
:105A40001DAA1F0046E7C046FFFF7F7FFFFF7FFFC5
:105A5000FEFFFF1F0000C040000080BFF0B55746AA
:105A60004E464546DE460B68E0B58268050058683C
:105A7000BBB084019868141987010020814618681A
:105A8000D719022805DDDB68581C02D09B01994616
:105A9000914490464B6820785B689B0198440B6961
:105AA000032820D0092800D17EE101280FD06E699B
:105AB000FFF7E6FB23780200B9492800B047012030
:105AC0003BB03CBC90469946A246AB46F0BD4B6904
:105AD00028001A78434602934B460097019323000F
