:020000041000EA
:1000000000B5324B212058609868022188439860DF
:10001000D860186158612E4B002199600221596106
:100020000121F02299502B49196001219960352056
:1000300000F044F80222904214D00621196600F024
:1000400034F8196E01211966002018661A6600F04E
:100050002CF8196E196E196E052000F02FF8012189
:100060000842F9D1002199601B49196000215960AB
:100070001A491B48016001219960EB211966A021F2
:10008000196600F012F800219960164914480160C1
:100090000121996001BC002800D000471248134993
:1000A000086003C880F30888084703B5996A0420EC
:1000B0000142FBD001200142F8D103BD02B5186610
:1000C0001866FFF7F2FF186E186E02BD00000240BE
:1000D000000000180000070000035F00212200005C
:1000E000F4000018222000A00001001008ED00E03C
:1000F00000000000000000000000000074B24E7A12
:1001000000200420F7010010C3010010C5010010F9
:10011000C1010010C1010010C1010010C101001097
:10012000C1010010C1010010C1010010C701001081
:10013000C1010010C1010010C9010010CB01001065
:10014000CD010010CD010010CD010010CD01001037
:10015000CD010010CD010010CD010010CD01001027
:10016000CD010010CD010010CD010010CD01001017
:10017000CD010010CD010010CD010010CD01001007
:10018000CD010010CD010010CD010010CD010010F7
:10019000CD010010CD010010CD010010CD010010E7
:1001A000CD010010CD010010CD010010CD010010D7
:1001B000CD010010CD010010CD010010CD010010C7
:1001C00000BE00BE00BE00BE00BE00BE00F04BF888
:1001D000103800BEF2EB887190590110B45901102B
:1001E0003402001090A31AE700202149086006C8D5
:1001F00081F3088810471F48006800282FD10DA4FC
:100200000ECC002902D000F012F8F9E71A491B4A77
:10021000002000E001C19142FCD1194988471949E9
:1002200088471949884700BEFDE701C901C29A42C3
:10023000FBD37047B4590110C00000200410002007
:10024000F86801100000042000000420F868011084
:1002500000100420001004200000000070470B482C
:100260000BF068FC0047EFF30580C0B27047000058
:1002700008ED00E0000000D008100020DC25002080
:1002800021950010E511001045960010575600000A
:1002900006005250ABB3605390520110060052500A
:1002A000861C0302A0520110060052505422A29D47
:1002B000A452011005005250DE65F468F868011080
:1002C000F8B5C0460448054B10B5834203D0044B33
:1002D000002B00D0984710BD04100020041000200F
:1002E0000000000006480749091A8910CB0F591869
:1002F00010B5491003D0044B002B00D0984710BD17
:1003000004100020041000200000000010B5074C6D
:100310002378002B09D1FFF7D5FF054B002B02D026
:10032000044800E000BF0123237010BD101000201E
:1003300000000000303F0110054B10B5002B03D02A
:100340000449054800E000BFFFF7CCFF10BDC046E0
:100350000000000014100020303F011010B5040010
:100360000800110000681A6809682368984710BDE2
:10037000012A05D0022A01D10B68036000207047D2
:100380000160FBE710B5831E1B88C01A02F060F9FC
:1003900010BDC046130010B58A008100034809183B
:1003A00018000DF0F1F9002010BDC046303F0110DB
:1003B00070B5041E0ED000290CD0451C481902F05F
:1003C0003FF9031E06D0401964422040821EC31A22
:1003D000138070BD0020FCE782B0F0B55746DE46C2
:1003E0004E464546E0B585B08A4603921100013A73
:1003F0000F93D30F9B185A10012319400F9B07002E
:100400000193109B009202919B46924500DB73E0A2
:1004100056468046751C6F007B1EDC002D0145444E
:1004200044446968606899460DF062F8F6004644F5
:10043000002808D0230006CB06C6009B4B4557DD9D
:100440004F463E00E6E72B0006CB06C6009BBB42AC
:10045000F7DC3C004746029B002B0ED1039A023A80
:10046000D30F9B185B10A34207D164000134E30053
:10047000FB181A0003CA03C51D00621ED30F9B1888
:100480005B109946544525DDDB00FE18594670681F
:1004900098460DF043F800281CD03D0041464F46D9
:1004A0000BE0DA00AE18594670683C0091461F0018
:1004B0000DF034F800280CD049468846E4002C1989
:1004C0000CCE0CC47A1ED30F9B185B10A844BA45FF
:1004D000E7DB4546019B2B605B466B6005B03CBC8F
:1004E00090469946A246AB46F0BC08BC02B01847FD
:1004F000250047464C46AEE75346DD00029B4519B2
:100500005446002BAAD0E5E7F8B557464E46DE46DE
:1005100045468946E0B5070088423DD008239A4603
:1005200082448A4538D055460CE0AF4204D0EA1BDD
:100530005046390013F0F4FC434608353B607E60BA
:10054000A94529D06E682B687968301C98460CF054
:10055000E5FF0028E9D12C002B1F1968301C083C4E
:100560000CF0DCFF002801D11CE05C4623002200D7
:10057000083303CA03C308235B429B46A3445B467C
:10058000301C59680CF0CAFF0028EED14346666063
:1005900023600835A945D5D13CBC90469946A24672
:1005A000AB46F8BD2C00434666602360F1E7C046C9
:1005B000F0B557464E464546DE46E0B58BB082461E
:1005C0006846C3765046049203910D000E1A802EA1
:1005D00000DCC3E0002A00D1D1E008235344059396
:1005E00007931300013B04935346ED1AED10EB0FF4
:1005F0005D195346DB686D109846039BED001E1F86
:1006000033685544994653461B686F689B4653466A
:10061000391C40465C680CF081FF4946002846D0F2
:10062000381C0CF07BFF002800D09EE04946404675
:100630000CF074FF002845D15346059A03CA03C342
:100640005A46059353469A60DC6034685346079DCA
:100650005F68039E6B68391C181CA94698460CF00D
:100660005DFF002821D10823201C5B42391C9B46DA
:1006700034000CF03DFFB344103C00282DD0260080
:10068000083C391CE0680CF033FF0028F7D1AE427B
:1006900026D92A0031002B6811C911C233604346A4
:1006A000736053465F68331F1C680835D2E74046C5
:1006B0000CF034FF0028BFD14946381C0CF02EFF47
:1006C000002852D0039B5246083B190021C921C281
:1006D00005925A461A603460B8E75E46AE42D8D8F2
:1006E0006B46049ADB7E03992800FFF761FF5346AF
:1006F000EE1A802E32DD049B0395002B00D071E7AB
:10070000F610B71E7F10FC00544408AD00E0013F16
:1007100022002B0003CA03C36B68320000932B68CE
:1007200039005046FFF758FE083C002FEFD14C46E9
:100730005646083C22002B0003CA03C323003200A4
:1007400003CA03C36B68A71B0093FA102B68002130
:100750003000FFF741FE083C082FEBDC0BB03CBC3F
:1007600090469946A246AB46F0BD53462A0003CABE
:1007700003C305935B466C602B60346866E789466B
:10078000BEE7C046FEE7C046F0B5DE464E464546EB
:100790005746E0B58DB00D00079181466A499068D3
:1007A000546810F07BFB431E9841022240420240F5
:1007B00001320692AA68696813004B43002B00D0EF
:1007C000B7E04B461B690393002B7BD0A300059336
:1007D00000239A4604938022039BD20098469342BA
:1007E00000D990464046059B0121584301F02CFF5B
:1007F0000190002800D19AE0049A4B4609924246A3
:100800009B680A920B90002B00D19BE048460BABF3
:100810000AAA09A9C468A047039B002B41D0079BE3
:100820001C68069B032B55D0534600250027FF2646
:100830009B00E3180293019B013758590CF0D8FE36
:1008400001239C460400000A3040E2440CF077FE8D
:100850003E490CF014FE3E490CF014FE8346200C79
:1008600030400CF06CFE39490CF009FE39490CF0AF
:1008700009FE011C58460CF0FFFD83462000304065
:100880000CF05DFE31490CF0FAFD33490CF0FAFD35
:10089000011C58460CF0F0FD029B58510435B84538
:1008A000C9D84246039B01989B1A039301F0D0FEDE
:1008B0008022D20094464A46049B12696344049302
:1008C0009A4288D800200DB03CBC90469946A2467A
:1008D000AB46F0BD019B00279B465346FF269B007D
:1008E000E4185B4601CB01379B460CF081FE050006
:1008F000000C30400CF023FE14490CF0C0FD2060C9
:10090000280A30400CF01BFE10490CF0B8FD032300
:10091000606028009C463040E2440CF010FE0B4919
:100920000CF0ADFDA0600C344745DAD3B9E70B48B5
:10093000C9E70B4801F060FE0A48002101F05CFEA7
:100940000948C0E7FFF71EFF2841011000007F4360
:10095000A245163F8716993ED578E93D16FCFFFF64
:10096000344101104C41011014FCFFFFF0B5454625
:1009700057464E46DE46E0B587B0109D81466C086E
:100980000134884617009C4200D075E0A800012180
:1009900001F05AFE824600286CD02E00454567D8EB
:1009A000B30098461A00494650460CF0EDFE40460A
:1009B000AA1B920000215044E4000CF0DFFE20004E
:1009C00001F03EFE029000285BD005AB00930022B0
:1009D00000230021280004F0C5F9039000284DD021
:1009E000029B51469B461A0004F092FA5B46B946B8
:1009F0009846A344434618680CF000FE43460400A2
:100A000058680D000CF0FAFD220006000F002B00C4
:100A1000200029000BF054FB320004000D003B00C5
:100A2000300039000BF04CFB0B00020029002000C5
:100A30000BF034FB0BF054FC0BF046FC4B4601C3AF
:100A4000994608239C46E044C345D3D1039801F05E
:100A5000FFFD029801F0FCFD0024504601F0F8FD76
:100A6000200007B03CBC90469946A246AB46F0BD7C
:100A7000464695E7044CF3E7044CF1E7029801F091
:100A8000E7FD014CE9E7C04616FCFFFF11FCFFFF44
:100A9000F0B5DE46574645464E46E0B59A464368B1
:100AA00087B004000D009346012B00D0B9E04B68DD
:100AB000012B00D0B5E09368012B00D0B1E0534684
:100AC00058685368013B984200D0AAE053469B689F
:100AD000012B00D0A5E0A3688A68934200D0A0E073
:100AE0008000012101F0B0FD0190002875D05B4627
:100AF0005B680121581E800001F0A6FD00900028CF
:100B000000D190E05A465268AB68013A0293904691
:100B1000002B2FD02B685246039323680592049331
:100B2000002399469B009A465246039B9E58434693
:100B3000002B16D05B46002400251F68AD00311C39
:100B400078590CF0DBFC002806D07B19311C586862
:100B50000CF0E4FC002849D10134A4B2250044453E
:100B6000ECD34B46029A01339BB299469342D9D3B8
:100B7000059B9A464346002B27D053461B6800240A
:100B80009946002300259A46464607E05B465246B2
:100B90000134A4B21A602500B44216D2AD00AB46AF
:100BA000009B00215F59CB44381C0CF099FC0028B5
:100BB000ECD1019B391C58590CF061FC5B460134A7
:100BC000A4B218602500B442E8D3009801F040FDBB
:100BD0000024019801F03CFD00E0144C200007B017
:100BE0003CBC90469946A246AB46F0BD5246019B9E
:100BF0005C19049B206899580CF03EFC009BFE2178
:100C00009C4620606544286889050CF035FC4B46FD
:100C1000029A01339BB228609946934200D281E741
:100C2000A6E7034CDAE7014CD3E7C04616FCFFFF0A
:100C300014FCFFFFF0B54546DE4657464E46E0B58C
:100C40008DB0049316AB14001A884368884602924C
:100C5000012B00D012E14B68012B00D00EE15208AD
:100C60008B68089292B2511C0793934609918B426C
:100C700000D003E16268012A00D0FFE0A26893423D
:100C800000D0FBE00768002F74D043461B68002BA0
:100C900070D02368002B6DD08668029B9E4265D37E
:100CA00000D91E00180005930121800001F0CCFC42
:100CB00003000690011E5DD0059A002A09D0013A72
:100CC00092B2043192005218FE21890502C39A4261
:100CD000FCD102980CF038FC051CFE20049980051C
:100CE0000CF0CDFB011C281C0CF0CCFB011CFE20E1
:100CF00080050CF0C4FBB24625685E460024B94668
:100D0000071C20000CF01BFC391C0CF0BBFB013451
:100D1000A4B201C5A642F4D20121042001F094FC42
:100D2000B3464F465646824600282CD030000CF081
:100D300006FC0390002E2BD04C460020B500ED1988
:100D400002CC0CF099FBA542FAD103990CF097FB69
:100D50005346051C18604B46291C18680CF089FB8B
:100D60004B4601C399469C42F5D117E0B3B20593B7
:100D7000300099E7544C20000DB03CBC9046994699
:100D8000A246AB46F0BD504C069801F061FCF2E77C
:100D9000011C00200CF073FB53461860079C0121D6
:100DA000E00001F051FC089B814601339C4200D0D9
:100DB00087E0029BB34263D99800012101F044FC13
:100DC000051E72D0B400220039000CF0DDFC029F39
:100DD0002819BA1B920000210CF0D0FC0BAB009339
:100DE000002338001A00190003F0BCFF041E59D07C
:100DF0004A46290004F08CF8200001F029FC280064
:100E000001F026FC43461D686B4605989F8C0CF04C
:100E10009BFB04990CF036FB011CFE2080050CF0B6
:100E20002EFB4C460026B8460390002221686368DA
:100E3000081C626002930CF025FB029B0490191CB5
:100E4000181C0CF01FFB011C04980CF015FB0399F7
:100E50000CF018FBB3452DD0011C0CF00DFB013636
:100E6000B6B2206001C50834BE42DED1484601F06A
:100E7000EFFB0024504601F0EBFB85E7134C7AE7CB
:100E800018000BAB009300220023002103F06AFF3F
:100E9000041E0AD04A46390004F03AF8200001F056
:100EA000D7FBAFE7280001F0D3FB074C484601F021
:100EB000CFFBDFE72060464601C50834B845B4D112
:100EC000D4E7034CF2E7C04616FCFFFF14FCFFFF1B
:100ED00011FCFFFFF0B5DE464E4645465746E0B5ED
:100EE000050083B082480C00934606F07BFE061E88
:100EF00000D0F2E001F06EFB0190002006F05EFFF2
:100F00000700002006F060FF7A4B80461A78002A1E
:100F100000D01E706968AA683B78514300290AD046
:100F2000092B60D000232D6878689A00AE580133F1
:100F300086508B42F9D306F051FF01F04BFB019B29
:100F4000C11A5B46E162002B2BD143461B78092B6B
:100F500066D043465A6813686360674B196821601E
:100F60005168E1605968A160916861619968DB68C6
:100F70002161D268A361E261604806F051FF01F08F
:100F800027FB831C00D1AFE001F022FB831C00D1C2
:100F9000AAE0002003B03CBC90469946A246AB466E
:100FA000F0BD574801F028FB43461B78092B6FD052
:100FB000544B00259A46544B4F4F994643465B6825
:100FC00079595E59504601F017FB301C01F02CFB9B
:100FD000484601F011FB7B590435236066600834F4
:100FE000102DEBD1C8E700262A68B3009858F9689D
:100FF0000CF045FA0CF056FB7B688246994638693E
:101000000CF0A2FA51460CF037FA0CF0BFFA4B463E
:101010009855AB686A6801365343B342E4D88AE70F
:1010200043465B680020994643461F69DE684B468D
:101030001856C01B0CF088FA311C0CF023FA2E4D08
:101040002B686060236001204B461856C01B0CF0D3
:101050007BFA311C0CF016FA6B68E060A36002208A
:101060004B461856C01B0CF06FFA311C0CF00AFAF4
:10107000AB686061236103204B461856C01B0CF01F
:1010800063FA311C0CF0FEF9EB68E061A36173E7D1
:101090001C4B00259A461C4B174E994643465B68ED
:1010A000585743461B690135C01A0CF04DFA4346A8
:1010B000D9680CF0E7F93168071C504601F09CFA3A
:1010C000381C01F0B1FA484601F096FA08CE676084
:1010D00023600834042DE1D14EE701000B4801F0F4
:1010E0008BFA0620404255E70220404252E7C046B4
:1010F000B1030010D8030020DC030020850300109A
:10110000EC4301100C4401108C410110B843011054
:101110002B4A2C4B526870B59A422AD12A4806F0C5
:1011200061FD041E44D101F055FA002006F046FE90
:101130000500002006F048FE244B1A78002A00D053
:101140001C702B78092B14D101F044FA6B68002B2A
:1011500012D0212201211E4801F04EFA00211D4823
:1011600001F04AFA1C481D4901F046FA05204042A8
:1011700070BD09204042FBE70121212001F064FA03
:10118000212201210400124801F036FA0021114801
:1011900001F032FA1048114901F02EFA05204042C0
:1011A000002CE5D0200001F053FA05204042DFE793
:1011B00001000B4801F020FA06204042D8E7C04663
:1011C000EC03002089070010B1030010D8030020B1
:1011D000344101104C4101103C43011014FCFFFF4D
:1011E000B8430110F0B5DE464E4645465746D0247A
:1011F000E0B580259FB00CF07FFD2406AD041920DA
:1012000006F094FF6562FA20656107F041FCA56174
:10121000FA2007F03DFC3422002111A80CF0AEFAB0
:101220007E2308AC1093824B0822210004A8089367
:101230000CF0AAFA082204A90CA80CF0A5FA7D4B20
:101240007D4E0E937D4B0F937D4B9B46584601F090
:10125000D3F9D02380221B0692049A617368794ADD
:10126000934200D199E001250121842001F0ECF99D
:1012700004AB1D73212304900693059501F0AAF990
:10128000736837689946B36880469A46212F00D91B
:10129000ABE0049B002B00D1A0E02360002323736C
:1012A0000123A76063605246674B21000CA8C84722
:1012B000002800D0AAE001F08BF9831C00D1B4E033
:1012C0002068002803D0237B002B00D083E001F0AE
:1012D00081F94346C01A1B90002211A904A8FFF708
:1012E000F9FD05000498002803D004AB1B7B002BFC
:1012F0006ED12900554801F07FF9002D59D154488D
:1013000001F07AF91D9B534801931C9B0025029321
:101310001B9B029A03930399019B01F06DF94E48C0
:1013200001F06AF94D4801F067F912980CF066F97E
:101330004B4F02000B00380001F05EF9494B984614
:10134000404601F059F911AB5B19D8680CF056F919
:10135000083502000B00380001F04EF9182DEFD1CE
:10136000414801F049F919AB9846404F11AD686802
:101370000CF044F902000B0038002968083501F030
:101380003BF94545F3D1D0238022FA201B06920475
:101390005A61800007F07CFB58E711A900220CA8D5
:1013A000FFF7B6FE05002948290001F025F9002DB8
:1013B000A5D00E9B002B03D00CA903220800984750
:1013C00028001FB03CBC90469946A246AB46F0BDF3
:1013D00001F03EF98DE701F03BF978E7B800012113
:1013E00001F032F9257320605AE72148052501F004
:1013F00003F96D420498002803D004AB1B7B002B3B
:10140000E6D12900114801F0F7F8D2E701000525DF
:10141000184801F0F1F86D4220680028EAD0237BDB
:10142000002BE7D001F014F9E4E702256D42F3E761
:101430009503001071030010EC0300205D03001001
:10144000F8410110890700100000A8413442011042
:1014500054420110644201109C420110A04201104C
:10146000A4420110B0420110AC420110B44201107C
:10147000C44201103C430110F0B557464546DE46D4
:101480004E46E0B5436805689B465B1B83B006008B
:1014900088469246DB104F1B002B05D05A00934222
:1014A00039D90824644201E00122D40020000CF064
:1014B00071F9230081464B440193736835689B465C
:1014C00043465C1B53464F4406CB06C7454504D0F4
:1014D00022002900484612F023FD5B4642460834AC
:1014E0004C449F1AC34504D03A00414620000CF0FA
:1014F0004BF9E419002D02D028000CF053F94B46AB
:101500003360019B7460B36003B03CBC9046994665
:10151000A246AB46F0BD044B9A42C2D8002AC4D1C1
:101520003C0001929146CDE7FFFFFF1FF0B5DE467C
:10153000574645464E46E0B5B9B00A9342AB0692CF
:1015400004CB83461B780B92079344AB1B888A46D7
:10155000099345AB1A784368089298464B689845BA
:1015600000D08FE0479B52005B680C92816801328B
:10157000002B6FD1914200D084E0479B9B6802937F
:10158000012B00D07EE043469B000121180005930B
:1015900001F05AF8051E04905FD05246526810922E
:1015A000904500D083E04246002A00D1FCE152463B
:1015B00097682E0038000BF0C2FF5246AC46146804
:1015C000BA009146059B039063440D940293002F4B
:1015D0004CD04B4600201D1902CC0BF04DFFA5420C
:1015E000FAD103990BF04BFF029B01C62C00B342CA
:1015F000EDD1002642464846B0460D9943468946FD
:10160000434399444B46002B42D0434604999B00E8
:10161000CE58002F10D0002302934D460024286896
:10162000311C0BF026FF013401C5BC42F7D3029BED
:10163000002B29D153465A6801239C46E04490452B
:1016400001D300F0E9FC53469F681B68B8000D9376
:101650001900D3E7013BD2188CE7DD4C200039B0EC
:101660003CBC90469946A246AB46F0BD002003998B
:101670004C440BF004FF2500029B01C62C00B34232
:10168000A5D1B6E7D34CE9E7484600F0E1FFD1E742
:10169000012100F0D9FF8146002808D04346049A72
:1016A0009B00D658002FEFD001230293B5E7C94C19
:1016B000049800F0CDFFD1E74346002B00D173E141
:1016C000079B0B985E1011960BF098FFC24AC34B14
:1016D0000AF0F6FC040006980D000BF08FFF0200E4
:1016E0000B00200029000AF0E2FC0AF03BFE0AF0A1
:1016F000EBFD0BF083FF0B000200209021910AF01C
:10170000DFFC0AF0E1FDB3000B93002312935B466C
:10171000249353461E901A931A9B119C1A689B6837
:101720001C92129A1F939B005A430421200023937A
:10173000229200F089FF04210290200000F084FF33
:1017400004210390200000F07FFF04210A90200074
:1017500000F07AFF04218246200000F075FF04218A
:101760008046200000F070FF8146002C00D1FCE094
:1017700007980AF01DFD02000B000AF08FFC149080
:1017800015912098219902000B000AF087FC169011
:101790001791FE201E9C8005211C0BF06AFE0BF0A9
:1017A0002DFF02000B000AF079FC18901991201C03
:1017B0000BF024FF0E900F9100210D914146029BEA
:1017C0000A9A9B46039B2691494690469946279143
:1017D0000D980AF0EDFC02000B000AF05FFC0022FD
:1017E0007F4B0AF05BFC7C4A7C4B0AF069FC149A44
:1017F000159B0AF05CFC0AF09FFD0AF065FD0BF0FA
:10180000FDFE169A179B0AF05BFC0E9A0F9B0600D2
:101810000F000AF043FC724B00220AF03FFC0AF072
:1018200053FD041C011C1E980BF029FE5A4601C2F0
:10183000201C93460BF0E2FE02000B0004000D009A
:10184000189819990AF033FC0AF03EFD4A4601C285
:101850003B000E980F99914632000AF016FC0022C8
:101860005F4B0AF01BFC22000400802000062B00C6
:101870000D18290020000AF01AFC0AF025FD424646
:101880000D9B01C29046119A01330D939A429FD14C
:10189000269B9846279B99461F9B002B65D01C9B37
:1018A000229A1D009446239965448C4663449446CD
:1018B0009C4463460D932B00454698460024039BA9
:1018C000295918590BF0DEFD4B4619590A9B061C85
:1018D00018590BF0D7FD011C301C0BF0CDFD434611
:1018E00019680BF0C9FD53461851834628590BF06F
:1018F00085FE02000B000AF0D1FB060058460F00DF
:101900000BF07CFE02000B00300039000AF0C6FB31
:101910004B46060018590F000BF070FE02000B003A
:10192000300039000AF0BAFB029B060018590F007C
:101930000BF064FE02000B00300039000AF0C0FB1F
:101940000AF0C2FC434618604B462A591A515346C6
:101950001B592B510B9B0434A342B0D104239C464A
:101960000D9BE0444345A9D1A846029800F070FEC3
:10197000039800F06DFE0A9800F06AFE504600F0F1
:1019800067FE404600F064FE484600F061FE1A9A89
:10199000129B52680133129302929A4200D9BBE61D
:1019A000249B9B461A9B9A460121059800F04CFE09
:1019B0000790002809D05346109A5B68934211D0D3
:1019C000044C079800F044FE72E6014C70E6C046F5
:1019D00016FCFFFF14FCFFFF182D4454FB210940A7
:1019E0000000F03F002A2FD0079B5746984600235F
:1019F0001E00BD68002D00D104E32B003A6873433C
:101A000092469C005B199B009A4400239946141946
:101A100001CC011C0BF036FD011C48460BF02CFDDF
:101A20008146A245F4D128000BF089FD011C4846EF
:101A30000BF025FD0BF0ECFD434601C398467B6897
:101A40000136B342D5D8BA4610980C9B01215843B1
:101A5000800000F0F9FD1490002800D1D0E2534638
:101A60005B68002B00D17DE2099B5808421C0D9257
:101A700092000A920C9A1190920016925A10944673
:101A8000531E1293D34B1E926344089A9B001C93DF
:101A900011000A2359438B00189101211A93079BC7
:101AA0000E91109383002293D300209353000133AF
:101AB000002A00D00E930E9B56469B0023930023D2
:101AC00005933268B4689446A00043436344002BF6
:101AD00000D169E22893002326AA137501332993C4
:101AE0002A9401210A9800F0AFFD021E039000D154
:101AF00058E22A9B099C0293289B00940B9302991D
:101B00000D9B0B98FEF732FF002800D048E2200022
:101B10000BF015FD011C8020C0050BF0B0FCFE2170
:101B20008905071C0BF0DCFC002800D150E20121E4
:101B3000169800F089FD0B90002800D146E20121A3
:101B40000A9800F081FD0290002800D12DE1FE20CE
:101B5000069980050BF093FC011C0BF08DFC011C19
:101B6000FE2080050BF08BFC1E9B051C002B00D17A
:101B700018E11E9B012B00D0B5E00023029A1360F0
:101B800001211A9800F060FD0C90002800D109E1B5
:101B9000039B1A689246119A012A3ED91F1D012300
:101BA0009946330000244E46994606E03D681F9E44
:101BB000119B0437AA46B3422DD93D68731C514688
:101BC000281C1F930BF0AAFC0028F0D07B68281C6F
:101BD000191C98460BF0A2FC0028E8D05146281C9E
:101BE0000BF047FC41468246281C0BF042FC011CCE
:101BF00050460BF041FC00210BF090FC0028D6D0A1
:101C000030000BF09CFC0C9BA500E8500134189BA5
:101C1000A4B2A342CAD14E4600E0002430AB98469D
:101C2000002300259A4634AF34957D60BD60A542FF
:101C30002ADA0C9AAB00914699444B4618680BF08F
:101C4000D7FC4346029A800082581A604B461868B7
:101C50000BF0CEFC039B8000C15843464698596068
:101C60000BF05CFC002803D0434652461A605A60D1
:101C70007968BB68994252D00B00424603CA03C33D
:101C80007B600135EDB2D2E7359B349D9A465C1BF3
:101C9000E0109D4252D009F047FF1F231A1A52004C
:101CA000002351462800FEF783FC802C5DDD2C00CC
:101CB000803421002800FEF727FCB146A24539D028
:101CC000236825001F93636898462E00083D6968C5
:101CD00040460BF023FC002826D02B002A000833B6
:101CE00003CA03C3F1E712980BF029FC011C281C5E
:101CF0000BF0C5FB00248046029F20000BF01FFC68
:101D000041460BF0BFFB00210BF0B6FB129B0134E8
:101D100001C7A342F1D1029B1C9A9D5030E7424675
:101D20003800FFF7A9FBACE71F9B0834336043463C
:101D30007360C3E7359B4E469A46349D53465C1B01
:101D400000239846E41030AD089BA3421AD94346BD
:101D500079682B606B60BB6899420ED00B002A003B
:101D600003CA03C37B600134EEE751462800FEF747
:101D7000CBFB359B349D9A46E0E72A003800FFF7FD
:101D80007BFBF0E734980B9B02001D000021089CB0
:101D90008C4223D9146801311C60546808325C609D
:101DA0000833F4E7029800F053FC0B4C0B9800F05A
:101DB0004FFC039800F04CFC2898002805D026AB77
:101DC0001B7D002B01D000F043FC149800F040FC78
:101DD000F7E5C046FFFFFF3F14FCFFFF002801D0DE
:101DE0000BF0E0FC0C9800F033FC029800F030FCA3
:101DF0000A9B01211800984600F026FC24220124A9
:101E000026AB9B181C700D9B2C902D942E930028B4
:101E100000D1D9E00121404600F016FC342126AA69
:101E20000D9B52183090147031943293002800D1D9
:101E3000C8E0099B30AA0093069B2CA928A89946C4
:101E4000FEF7F8FE002800D0A8E00122479B52428E
:101E50005B6894469846E04402934346012198000B
:101E600000F0F2FB434638603C737B60BC600028A6
:101E70007AD04B46479A009330A93B002CA8FEF736
:101E800007FE002800D0B1E05B469B689C00059BE4
:101E90005C435B461B689C46109B64441B68029332
:101EA0002360089B002B0BD0209A231D0432A2181C
:101EB0002968196069680835596008339A42F7D172
:101EC0007B683D68002B16D0BA68A94692009246FE
:101ED000239A90460E9AA044944663449B00E418CB
:101EE0004B464A4918680BF0CAFA434601C3984664
:101EF000D144A342F4D1002D05D03B7B002B02D06E
:101F0000280000F0A5FB3098002807D0342226AB2B
:101F10009B181B78002B01D000F09AFB2C9800280E
:101F200007D0242226AB9B181B78002B01D000F091
:101F30008FFB0B9800F08CFB039800F089FB28982E
:101F4000002805D026AB1B7D002B01D000F080FBC4
:101F5000109A059B043210927268013305939A42DD
:101F600000D9AEE5002430E7294C3098002807D08E
:101F7000342226AB9B181B78002B01D000F068FBA5
:101F80002C98002800D111E7242226AB9B181B783F
:101F9000002B00D10AE700F05BFB07E70400E4E751
:101FA0001C4C06E71A4C07E7012100F04DFB01230A
:101FB00026AA2890137529932A94002800D090E52A
:101FC000134C02E7124CDBE7114CEFE6104CF0E645
:101FD000039B9C461C00229B1D1D65442068391CE8
:101FE0000BF050FA01C4A542F8D1A0E5040038680E
:101FF0000028BAD03B7B002BB7D000F029FBB4E718
:10200000034CDEE4002399460DE5C0460000204164
:1020100016FCFFFF14FCFFFF0A9B9046012B01D129
:10202000FFF74AFB0A9B022B00D0BDE44346002B7E
:1020300000D1B9E4079B0B985E1016960BF0DEFA00
:10204000B24AB34B0AF03CF8040006980D000BF0BE
:10205000D5FA02000B00200029000AF028F80AF047
:1020600081F90AF031F90BF0C9FA0B000200249053
:1020700025910AF025F80AF027F9B3000B93002305
:1020800014935B46D346269027935B461B68149AAD
:1020900022935B469B68169C20939B005A43042125
:1020A00020001F93239200F0CFFA04210290200019
:1020B00000F0CAFA04210390200000F0C5FA0421C0
:1020C0000A90200000F0C0FA04218246200000F0AF
:1020D000BBFA04218046200000F0B6FA8146002CAD
:1020E00000D1F3E007980AF063F802000B0009F052
:1020F000D5FF189019912498259902000B0009F03A
:10210000CDFF1A901B91FE20269C8005211C0BF010
:10211000B0F90BF073FA0B00020009F0BFFF1C903E
:102120001D91201C0BF06AFA029B129013911E93D2
:10213000039B11930A9B0E9300230D930D980AF0B5
:1021400037F802000B0009F0A9FF0022714B09F0DB
:10215000A5FF6E4A6E4B09F0B3FF189A199B09F060
:10216000A6FF0AF0E9F80AF0AFF80BF047FA1A9A5E
:102170001B9B09F0A5FF129A139B04000D0009F0A8
:102180008DFF644B002209F089FF0AF09DF8061CC0
:10219000011CFE2080050BF072F91E9A01C2301C52
:1021A0001E920BF02BFA02000B0006000F001C9889
:1021B0001D9909F07CFF0AF087F8119A2B0001C2E3
:1021C000119212981399220009F05FFF0022514BDF
:1021D00009F064FF0400802000060D1832003B0067
:1021E0002000290009F063FF0AF06EF80E9A0D9B9B
:1021F00001C201330E920D93169A9A429ED1209BF2
:10220000002B63D0229B239A1D0094461F9965449E
:102210008C46634494469C4463460D932B0045468C
:1022200098460024039B295918590BF02BF94B466B
:1022300019590A9B061C18590BF024F9011C301C73
:102240000BF01AF9434619680BF016F9534618516A
:102250000BF0D4F9060028590F000BF0CFF902005B
:102260000B0009F01BFF02000B003000390009F0E1
:102270000CFF4B46060018590F000BF0BFF9020087
:102280000B003000390009F009FF029B06001859C5
:102290000F000BF0B3F902000B003000390009F019
:1022A0000FFF0AF011F8434618604B462A591A519D
:1022B00053461B592B510B9B0434A342B2D1042328
:1022C0009C460D9BE0444345ABD1A846029800F0E4
:1022D000BFF9039800F0BCF90A9800F0B9F950462C
:1022E00000F0B6F9404600F0B3F9484600F0B0F906
:1022F0005A46149B5268013314939A4200D9C4E69B
:10230000279BDA469B46FFF74FFBC046182D4454E7
:10231000FB2109400000F03FF0B5DE464546574638
:102320004E46E0B5BDB00E93936807919A46D368C8
:1023300004000C93136900690993536914AD0D935C
:1023400093690A93D3690893136A0B93536A0693AC
:1023500053689B46190009F047FC5B46060098004D
:102360007043012100F070F901232B735B46149038
:102370006E60AB60002800D117E100231193236940
:1023800013901293A368002B00D110E111A9E66805
:1023900013AB12AA2000B047FE21504689050BF06E
:1023A0009FF8002864D02B686E6899463300AC68AB
:1023B00063439B0098460121404600F045F9824660
:1023C000031E4CD0002C11DD002E0FDD4946A40069
:1023D000B60060180A008C469F191168121902C3D2
:1023E000BB42FAD1614604318142F3D142465146A3
:1023F00048460BF0C9F9504600F02AF980206B6876
:102400002A891B041B0C012140006A60AB6000F0AC
:102410001BF9442101230AAA521813704022189074
:1024200019920600403200211CA81A930BF0A6F95D
:1024300006980EF077FD7F2839D95E4F002E00D028
:1024400074E01498002802D02B7B002B0DD13800AB
:102450003DB03CBC90469946A246AB46F0BD5649BD
:10246000564800F0C9F8544FEBE700F0F1F8EEE7FA
:102470006E68AC68330063432A689146002B99D09C
:102480009B0098461300170043445A46B3465646ED
:10249000A2461C000F923868311C0AF0F3FF01C7F6
:1024A000BC42F8D10F9B5E4654469B4683E7020030
:1024B00006991CA80BF068F9002300271E001CAC2D
:1024C00020000DF0EFFD189B0136984609F0FCFE48
:1024D0004346D85102E02378002B06D023780134FC
:1024E0002C2BF8D10437002CEAD13300464698460D
:1024F0001993089B41465A0043469B18002900D176
:10250000531C079A916852680C000F9254435A4624
:102510005A43069194420DD0294F002E91D0442267
:102520000AAB9B181B78002B00D18AE7300000F023
:102530008FF886E7079A0C9E936013005A4621494C
:102540005A6030000EF0AAFC012300281FD118AAFF
:1025500005920B9A202104926A465218127814317F
:1025600003926A46128D079802926A4652181278B0
:1025700029000192099A00920E9AFEF7D7FF071ED2
:102580000DD10123079A189E94605360C5E70E4948
:1025900030000EF083FC434243415B00D7E701006B
:1025A0000A4800F029F8189EB7E7034F4FE7FEF7F7
:1025B000E9F8C04610FCFFFF16FCFFFF9041011038
:1025C00014FCFFFFB8410110BC410110C4410110CF
:1025D0000020704710B506F0C3FB002905D1FA2191
:1025E000890009F001FB002110BDFA2200239200AE
:1025F00009F040FBF7E7C0460FB4802110B582B068
:1026000004AB084C04CBC9002000019309F04EFA3A
:10261000002802DD20000BF063FB02B010BC08BCF8
:1026200004B018477414002010B50AF0E7FF020048
:102630000B000248FFF7E0FF10BDC04650440110F8
:1026400010B50BF087F810BD10B50BF087F810BD72
:1026500010B50BF087F810BDF0B54E46DE46574674
:102660004546E0B505008420400084468FB0944480
:1026700008935268DB00EE180C92F21891466446FB
:10268000C8000A9008010B90480041184B44C9004B
:1026900002940D919B46009401949246B14613E03A
:1026A0004B461E6058605B46039A1A6042465A6069
:1026B00008229446089B0835013B0893E144E24414
:1026C000E344002B00D1DFE04B461E68029B311C27
:1026D0001A685C6890464A46404657680AF0D2FE3F
:1026E000391C0390201C0AF0CDFE011C03980AF04F
:1026F000C0FE41460390381C0AF0C4FE311C071C82
:10270000201C0AF0BFFE011C381C0AF0B5FE524620
:102710001668019A049011685468884651464046EC
:102720004F68311C0AF0AEFE391C0590201C0AF0DF
:10273000A9FE011C05980AF09CFE41460590381C34
:102740000AF0A0FE311C071C201C0AF09BFE011C95
:10275000381C0AF091FE59465E460F68009976686B
:102760000C68B04606904E68201C391C07940AF08D
:1027700089FE4146041C301C0AF084FE011C201C0A
:102780000AF077FE0799041C40460AF07BFE391CCC
:102790008046301C0AF076FE011C40460AF06CFEB2
:1027A0002E68071C0599301C09960AF062FE6A68BB
:1027B000061C0699101C90460AF05BFE05990790CE
:1027C00009980AF059FE06990990286040460AF0D7
:1027D00053FE039906906860201C0AF04DFE049990
:1027E0000590381C0AF048FE211C804603980AF028
:1027F00040FE391C041C04980AF03BFE0599071C96
:1028000009980AF036FE52464146106006980AF0D2
:1028100030FE524650600A98029B844663440293FD
:10282000019A0B9B05999C46624401920D9A009B6C
:1028300094462868634400930AF01EFE41462860CF
:1028400068680AF019FE311C6860381C0AF014FE32
:10285000211C039007980AF00CFE391C8046301C9E
:102860000AF007FE0799061C201C0AF005FE0C9BC7
:10287000002B00D014E74B46039A1A6042465A6078
:102880005B461E60586013E70FB03CBC904699460B
:10289000A246AB46F0BDC046F0B54546DE465746BB
:1028A0004E46E0B58BB08246069318004B43213369
:1028B000DB00D3185B685546099384235B00984678
:1028C0009044CA0007920A0108925246C300D418E5
:1028D00099464346C346A1440193236867689846D6
:1028E0005B461E685B68311C40469A460AF0CAFD8A
:1028F00051460290381C0AF0C5FD011C02980AF0EE
:10290000B8FD5146029040460AF0BCFD391C804695
:10291000301C0AF0B7FD011C40460AF0ADFD4B46E5
:102920001B684A469846019B57681E685A68311CC6
:102930000390404692460AF0A5FD51460490381C8B
:102940000AF0A0FD011C04980AF093FD5146049082
:1029500040460AF097FD391C8046301C0AF092FD73
:10296000011C40460AF088FD0499824602980AF04C
:1029700083FD5146059003980AF07EFD079A019B5E
:102980009446089AE3449446634401938046286839
:102990000AF034FE060005980F000AF02FFE002210
:1029A000314B09F08DFB02000B003000390009F0BB
:1029B0006CFB09F089FC206068680AF01FFE0600C5
:1029C00040460F000AF01AFE0022274B09F078FB60
:1029D00002000B003000390009F057FB09F074FCCD
:1029E0000499606002980AF044FD099F391C0AF0BE
:1029F00049FD5146061C03980AF03BFD391C0AF0BC
:102A000041FD0599071C28680AF036FD41462860FB
:102A100068680AF031FD68602068391C0AF02CFDF6
:102A20004B4618606068311C0AF023FD4B46586025
:102A3000391C20680AF01DFD311C206060680AF016
:102A40001BFD08229446069B6060013B08350693F7
:102A50000834E144002B00D03FE70BB03CBC90466B
:102A60009946A246AB46F0BD0000E03FF0B54546B2
:102A7000DE4657464E461C00E0B59BB015934B43CF
:102A8000093280460290FF32D80013181D680C9559
:102A90005D681B1803951D685B680D950E93E30038
:102AA0009B4618009844C3445844844663440193A9
:102AB000002C00DCBDE1CB0018934B000C015B182F
:102AC0001794DC000023DA468146C346490104928C
:102AD0001994169105920692079214935946029CF6
:102AE0000E68236862680893049B4D681C68301C5C
:102AF000211C5F6809920AF0C5FC391C8046281C1D
:102B00000AF0C0FC011C40460AF0B3FC391C0F90CF
:102B1000301C0AF0B7FC291C061C201C0AF0B2FC71
:102B2000011C301C0AF0A8FC5146079A0E68146874
:102B30004D681090211C301C57680AF0A3FC391C0A
:102B40008046281C0AF09EFC011C40460AF091FCBD
:102B5000391C1190301C0AF095FC291C061C201C05
:102B60000AF090FC011C301C0AF086FC49460968FA
:102B70004E468846069977680D684E68041C291CE5
:102B800040460A960AF07EFC0A99061C381C0AF098
:102B900079FC011C301C0AF06CFC0A99061C4046AA
:102BA0000AF070FC391C8046281C0AF06BFC011CE2
:102BB00040460AF061FC019B051C1F68381C059FFC
:102BC000129039687F68884659680B970A91414688
:102BD0000AF058FC0B99071C0A980AF053FC011CD8
:102BE000381C0AF046FC0B99071C12980AF04AFCA4
:102BF0000A990B9040460AF045FC011C0B980AF01C
:102C00003BFC391C0B900F980AF036FC0B99804660
:102C100010980AF031FC391C0A900F980AF029FC30
:102C20000F900B9910980AF024FC311C1090119809
:102C30000AF022FC291C0B90201C0AF01DFC311C00
:102C4000071C11980AF015FC291C1190201C0AF091
:102C500010FC0B9E1290311C40460AF00DFC0899A6
:102C60000AF00AFC029C391C20600A980AF004FC55
:102C700009990AF001FC0C9D6060291C40460294F1
:102C80000AF000FC08990AF0F7FB0D99041C301CAF
:102C90000B960AF0F7FB011C201C0AF0EDFB291C27
:102CA000061C0A980C950AF0EDFB09990AF0E4FB62
:102CB0000D99041C381C0AF0E5FB011C201C0AF0CD
:102CC000DBFB0399051C10980AF0DCFB0E99041C31
:102CD00012980AF0D7FB011C201C0AF0CDFB8024BF
:102CE000039913900F980AF0CDFB240604190E994E
:102CF00011980AF0C7FB011C201C0AF0BAFB1399BB
:102D0000041C301C0AF0B5FB5A46211C1060281C1C
:102D10000AF0AFFB5A4613995060301C0AF0ACFB26
:102D2000019E211C3060281C0AF0A6FB0D9D7060DE
:102D3000291C404601960AF0A5FB08990AF09CFB65
:102D40000C9B041C191C0B9898460AF09BFB011C59
:102D5000201C0AF091FB291C041C0A980AF092FB23
:102D600009990AF089FB4146051C381C0AF08AFBC8
:102D7000011C281C0AF080FB0399051C12980AF01C
:102D800081FB0E9B061C191C109898460AF07AFBD2
:102D9000011C301C0AF06DFB4146061C0F980AF01E
:102DA00071FB0399071C11980AF06CFB011C381C7D
:102DB0000AF05FFB311C071C201C0AF05DFB524629
:102DC000391C1060281C0AF057FB5246311C506019
:102DD000201C0AF04EFB4A46391C1060281C0AF0E1
:102DE00048FB4D46686008208446029CE344083452
:102DF0000294189CE244E144A446049B019E63446F
:102E00000493179B14989C46079A08366244013035
:102E1000019614900792199B06999C46169B614453
:102E20009C46059F159B674406910597834200D0F9
:102E300054E61BB03CBC90469946A246AB46F0BD5A
:102E4000F0B5DE4657464E464546E0B505008420BF
:102E5000400084469444604691B0059010680F008D
:102E600006901A980E91C40020001E000F93FFF7E1
:102E7000E7FB0890002E00DC88E03A00844600233F
:102E800072430B956444F500099504940A920C93DF
:102E90000D931A9B002B6BDD089A0B9B0498099CE1
:102EA000190060C960C21B199042F9D10C9B0393B1
:102EB0000B9B9B4600235E4607933300089C06CC81
:102EC00006C31A9B012B45D0002573683768B346AB
:102ED0002E001D1C039B9C46069B6644B34200DCEF
:102EE000F61A059A236894469846F30063441A68D4
:102EF0005B689246626841465046019391460AF0EB
:102F0000C1FA4946029001980AF0BCFA011C0298E5
:102F10000AF0AFFA011C381C0AF0AEFA5A465146C4
:102F20001060071C48460AF0ADFA414681460198F8
:102F30000AF0A8FA011C48460AF09EFA011C281C57
:102F40000AF09AFA5B465860049B0834051C9C42C0
:102F5000C0D15E46099A0A99944666448C46039A03
:102F6000079B624403921A9A013307939A42A4D1B1
:102F70000E990B9A8C4608320B920C9A0D9B624468
:102F80000C920F9A01330D939A4282D10898FFF761
:102F90005FFB11B03CBC90469946A246AB46F0BDE3
:102FA000F0B5DE4657464E464546E0B5AFB0389CD4
:102FB0001F00A3465D46060024686D6821946C439B
:102FC0000E93E300299018003B00B446534360443D
:102FD000DC0017912A92189527902894012D26D16C
:102FE00033000A00110060C960C312199842F9D178
:102FF000219B032B00D150E300DCE0E2042B0FD037
:10300000052B00D041E3189B399A2A992998FFF79C
:103010002DFD2FB03CBC90469946A246AB46F0BD74
:10302000189B399A2A992998FFF716FBF1E71300A4
:10303000219A53430E9A2C93D1001A00DB002B9354
:10304000189B4A43DB002D93299B2591119328233C
:103050005B44229215935B465A469B68D2681B9349
:1030600053431199DB0018008C4660440D92209068
:10307000012A28D10B00179A229C110060C960C355
:1030800012199842F9D11B9B032B00D1E7E200DC17
:103090002DE2042B00D1F1E2052B00D0E6E20D9BDE
:1030A000399A2C991198FFF7E1FC289A179B9446BE
:1030B0002D9A634494461793119B279A6344119366
:1030C0009A42C8D194E71B9A2C9B5343259A249388
:1030D0005A43DB0023930D9B1C92DB002693179B26
:1030E0001293119B0A935B465A461B6952690F93D0
:1030F00053430A99DB0018008C46604408921A90EA
:10310000012A28D10B00129A1C9C110060C960C3CF
:1031100012199842F9D10F9B032B00D139E200DC40
:103120007DE1042B00D143E2052B00D038E2089B5F
:10313000399A24990A98FFF799FC229A129B94468F
:10314000269A6344944612930A9B209A63440A93F6
:103150009A42C8D197E70F9A249B5343259A1E930E
:103160005A43DB001D93089B1392DB001F93129BB5
:103170000B930A9B06935B465A469B69D269099357
:1031800053430699DB0018008C466044059210906A
:10319000012A28D10B000B9A139C110060C960C34F
:1031A00012199842F9D1099B032B00D198E100DC58
:1031B000D4E0042B00D18CE1052B00D081E1059BEC
:1031C000399A1E990698FFF751FC1C9A0B9B94465E
:1031D0001F9A634494460B93069B1A9A6344069382
:1031E0009A42C8D197E7099A1E9B5343259A169392
:1031F0005A43DB001493059B0C92DB0019930B9B45
:103200000793069B03935B461E6A5B6A99461C0004
:10321000039B4A469C467443E4006444012A25D13A
:10322000079A0C981100A0C9A0C312189C42F9D1AA
:10323000032E38D0032E3DDD042E00D1E8E0052E0C
:1032400000D0DDE04B46399A16990398FFF70EFC43
:10325000139A079B9446199A634494460793039BD9
:10326000109A634403939A42CDD19CE71D00169BAC
:10327000079F73439A46D30098465346B2461E00B2
:10328000399B39000193159B2800009332000E9B57
:10329000FFF786FE0C9B45449C466744AC42EFD149
:1032A0005646032EC6D14B46399A16990398FFF716
:1032B000F3FACDE7022E00D0A2E04B46039CDD00DE
:1032C000A4465B46399E65440936FF3638932B6821
:1032D00072689A463368504698466B6841469346F2
:1032E00004930AF0CFF85946071C04980AF0CAF86C
:1032F000011C381C0AF0BDF85946071C50460AF05C
:10330000C1F80499824640460AF0BCF8011C5046B8
:103310000AF0B2F8149B80469C462068391C66442B
:103320000AF0A7F82860606841460AF0A2F86860D1
:103330002068391C0AF0A0F84146206060680AF055
:103340009BF801235B429C46E1444B466060083594
:103350000834002BBBD1389B9B4679E7022B00D069
:10336000AFE0059B069CDD00A4465B46399E6544A4
:103370000936FF3638932B689A463368504698468C
:103380006B684146994673689B460AF07BF859463C
:10339000071C48460AF076F8011C381C0AF069F848
:1033A0005946071C50460AF06DF849468246404689
:1033B0000AF068F8011C50460AF05EF81D9B804632
:1033C0009C462068391C66440AF053F828606068FF
:1033D00041460AF04EF868602068391C0AF04CF843
:1033E0004146206060680AF047F8059B6060013B39
:1033F000083508340593002BBDD1389B9B46E4E685
:1034000000964B46399A16990398FFF719FD1FE766
:103410004B46399A16990398FFF71EF918E7022BC5
:1034200000D0BDE0089B0A9CDD00A4465B46399EA7
:1034300065440936FF3638932B689A463368504600
:1034400098466B684146994673689B460AF01AF89D
:103450005946071C48460AF015F8011C381C0AF0AA
:1034600008F85946071C50460AF00CF849468246AF
:1034700040460AF007F8011C504609F0FDFF239B67
:1034800080469C462068391C664409F0F2FF28609B
:103490006068414609F0EDFF68602068391C09F05A
:1034A000EBFF41462060606809F0E6FF089B606022
:1034B000013B083508340893002BBDD1389B9B464F
:1034C0003BE60093399A059B1E990698FFF7B8FCD6
:1034D0007BE6059B399A1E990698FFF7BDF874E6BE
:1034E000059B399A1E990698FFF7D6F96DE6022BCF
:1034F00000D0BBE00D9B119CDD00A4465B46399ECD
:1035000065440936FF3638932B689A46336850462F
:1035100098466B684146994673689B4609F0B2FF2E
:103520005946071C484609F0ADFF011C381C09F03C
:10353000A0FF5946071C504609F0A4FF49468246A1
:10354000404609F09FFF011C504609F095FF2B9B58
:1035500080469C462068391C664409F08AFF286032
:103560006068414609F085FF68602068391C09F0F1
:1035700083FF41462060606809F07EFF0D9B60601C
:10358000013B083508340D93002BBDD1389B9B4679
:103590008BE5089B399A24990A98FFF77DF9CCE5C9
:1035A0000093399A089B24990A98FFF749FCC4E5CF
:1035B000089B399A24990A98FFF74EF8BDE5022B2B
:1035C00063D1299E189BB446DC00399D2A9B09359E
:1035D000DB00FF356444039323689A462B6850460A
:1035E00098466368414699466B689B4609F04AFFD6
:1035F0005946071C484609F045FF011C381C09F0D4
:1036000038FF5946071C504609F03CFF49468246A0
:10361000404609F037FF011C504609F02DFF039B7F
:1036200080469C463068391C654409F022FF2060C2
:103630007068414609F01DFF60603068391C09F070
:103640001BFF41463060706809F016FF189B7060E0
:10365000013B083408361893002BBDD1D9E40D9BEB
:10366000399A2C991198FFF717F91EE50093399AAA
:103670000D9B2C991198FFF7E3FB16E50D9B399AEA
:103680002C991198FEF7E8FF0FE50093399A189BE3
:103690002A992998FFF7D4FBBBE4189B399A2A99F9
:1036A0002998FFF7F9F8B4E4F0B557464E46DE46E0
:1036B000454689460100E0B5213185B0C9000700C3
:1036C0000291002B00D1F6E0002A00D19EE2080012
:1036D0001968814200D278E29246186053464A4601
:1036E0001F605A60380008F063FD4B46009001915E
:1036F000002B00D194E0002F25DD84235B00534490
:10370000B94600261F00300008F052FDBD4ABE4BEE
:1037100008F0D6FC009A019B08F0C9FC04000D00DB
:1037200008F0F4FD08F0D0FD29003860200008F012
:1037300003FE08F0C9FD013678600837B145E2D1D3
:10374000009801994F4608F0CBFD08F099FE002241
:10375000AE4B544655460090019108F0FBFC802387
:10376000083410350022DB05002800D1B7E00098AE
:10377000019908F0EFFC0426002800D081E0012325
:103780009846013399463100380008F001FA0029C3
:1037900013D13800310008F0FBF9266007006060A3
:1037A000012800DC8EE023003100103338002C00AB
:1037B0001D0008F0EDF90029EBD0022E00D1A2E1A6
:1037C000042E00D0A1E14146FA0FBB180B409342F2
:1037D00000D098E1D3194A465F1022606760012F3C
:1037E00070DD394200D08AE1220049469F10103234
:1037F00029606F60012F65D041461035394200D0F5
:103800000AE2DF104B4667612361012F5AD0230083
:103810002033394200D074E12C0002261D00B8E7A5
:10382000002F90DD5646B8464F460936FF36380021
:1038300008F0BEFC734A764B08F042FC009A019BEC
:1038400008F035FC04000D0008F060FD08F03CFDB8
:1038500029003060200008F06FFD08F035FD0137C9
:1038600070600836B845E2D10098019947466AE78A
:10387000070026606060012824DD230010332C003F
:103880001D003100380008F083F90029F0D0022E25
:1038900001D0042E01D13E00F3E70236300008F0DB
:1038A00087FC02000B000098019908F053FC0028E7
:1038B000E7D03E00E5E70800FEF7C2FE824600289A
:1038C00000D00BE70E9B002B01D0029A1A605046E5
:1038D00005B03CBC90469946A246AB46F0BD009868
:1038E000019908F037FC0426002800D097E0012356
:1038F0009B46013398463100380008F049F9002909
:1039000070D0022E2CD0042E00D012E15946FA0FAE
:10391000BB180B40934223D1D31942465F1022605B
:103920006760012FCEDD394200D06AE122004146B6
:103930009F10103229606F60012FC3D05946103597
:10394000394200D066E1DF10434667612361012FF1
:10395000B8D0230020332C0002261D00394241D06C
:103960000321380008F014F9002900D0F0E00331F9
:10397000380008F00DF903268146266060600128B2
:10398000A0DD032108F004F9002900D021E1102373
:103990009C46A444634609213800039308F0F8F8D4
:1039A0002E6081466860012800DC8BE7032110351A
:1039B00008F0EEF8002900D031E138001B3108F0A2
:1039C000E7F8266107006061012800DC7AE720340F
:1039D0000321260008F0DCF82C003500032600291E
:1039E00000D0A6E03800310008F0D2F826600700C9
:1039F0006060012800DC65E7230010332C001D0007
:103A000079E7C046182D4454FB21194000000840B6
:103A1000FB2119C0022E1ED0042E5ED13E003100C3
:103A2000380008F0B5F80029F4D13800310008F06A
:103A3000AFF8266007006060012800DC42E7230041
:103A40003100103338002C001D0008F0A1F80029C7
:103A5000EBD0022EE0D10321380008F099F80029BC
:103A600049D10331380008F093F803230600984643
:103A700023606060012800DC24E7032108F088F857
:103A8000002900D0B4E0102309313800994608F02D
:103A90007FF84346A14406002B606860012800DCE3
:103AA00010E70321103508F073F8002900D0BAE0C0
:103AB00038001B3108F06CF8434607002361606151
:103AC000012800DCFEE620340321260008F060F81F
:103AD0002C00350003260029A7D00236300008F05C
:103AE00067FB02000B000098019908F033FB0028E7
:103AF00095D03E0093E700224D4B0526F3E72300C7
:103B000010332C001D003E003DE60236300008F068
:103B10004FFB02000B000098019908F01BFB0028E6
:103B200000D130E63E002EE62B004F46250005264C
:103B30001C000236300008F03BFB02000B0000982E
:103B4000019908F007FB002800D1D4E63E00D2E638
:103B5000002200980199364B08F0FCFA0028F5D1B4
:103B60000521380008F014F800292CD1380005315F
:103B700008F00EF80523070023606060012800DCD0
:103B8000A0E610340521260008F002F82C003500CC
:103B9000002918D1052625E70521484607F0F8FF3A
:103BA0000029C1D138000F3107F0F2FF05230700CB
:103BB0002B606860012800DC84E60521103507F0E1
:103BC000E7FF0029E6D00526B3E7186000239A46F0
:103BD00078E6002200980199154B103408F0BAFAE3
:103BE0000028D9D023004F462C003E001D0082E65D
:103BF000230010332C0037001D0000220C4B05263B
:103C000071E7230010332C001D00A9E61960002382
:103C10009A4657E61400A3E614003E00B3E54F466B
:103C2000039C032685E737004C46032655E7C0462C
:103C300000001440F0B5DE4657464E4645468246E3
:103C40001023E0B553449BB00C0093469946914233
:103C500000D1DBE2C56887682E007E43F6005E4433
:103C6000012D00D0DFE1130006CC06C39E42FBD13C
:103C7000032F00D1F2E1032F01DC00F0B8FC042F88
:103C800001D100F07AFD052F01D000F06EFD5646FF
:103C90000936EB00FF36F21811680E915168D21800
:103CA0000491116852680F91190059448C469C4444
:103CB000109262469C440392E24662469A44059200
:103CC000002D00DCA8E11A00D1465244DA468B46AA
:103CD00006961692099608960796534659465246F6
:103CE0001B680E680A93069B52681C684D68301C5E
:103CF000211C5F680B9209F0C5FB391C8046281C0B
:103D000009F0C0FB011C404609F0B3FB391C1190BF
:103D1000301C09F0B7FB291C061C201C09F0B2FB63
:103D2000011C301C09F0A8FB039B079A1E6814684D
:103D30001290211C301C5D68576809F0A3FB391CE8
:103D40008046281C09F09EFB011C404609F091FBAF
:103D5000391C1390301C09F095FB291C061C201CF3
:103D600009F090FB011C301C09F086FB059A041C2D
:103D7000116857688846089940460D684E68291CA6
:103D80000C9609F07FFB0C99061C381C09F07AFB95
:103D9000011C301C09F06DFB0C99061C404609F013
:103DA00071FB391C8046281C09F06CFB4F46011C36
:103DB000404609F061FB3F68051C381C099F1490C0
:103DC00039687F688846494649680D970C91414695
:103DD00009F058FB0D99071C0C9809F053FB011CC6
:103DE000381C09F046FB0D99071C149809F04AFB92
:103DF0000C990D90404609F045FB011C0D9809F007
:103E00003BFB391C8046119809F036FB41460C906B
:103E1000129809F031FB391C0D90119809F029FB1B
:103E200041461190129809F024FB311C129013980E
:103E300009F022FB291C8046201C09F01DFB311CC7
:103E4000071C139809F015FB291C1390201C09F07E
:103E500010FB0C9C41461490201C09F00DFB0A9E9F
:103E60005546311C09F008FB391C28600D9809F0F3
:103E700003FB0B9909F000FB68600E9D211C281CB8
:103E80000C9409F0FFFA311C0A9609F0F5FA414644
:103E9000041C0F9809F0F6FA011C201C09F0ECFA3A
:103EA0000D99061C281C0E9509F0ECFA0B9909F0E7
:103EB000E3FA391C041C0F9809F0E4FA011C201CD9
:103EC00009F0DAFA1299051C049809F0DBFA149942
:103ED000041C109809F0D6FA011C201C09F0CCFA39
:103EE000802411991590049809F0CCFA240604193D
:103EF0001399109809F0C6FA011C201C09F0B9FAB0
:103F00001599041C301C09F0B4FA5A46211C1060A3
:103F1000281C09F0AEFA5A4615995060301C09F079
:103F2000ABFA4E46211C3060281C09F0A5FA0F9D03
:103F300070600C99281C09F0A5FA0A9909F09CFAFE
:103F40000E9E041C4146301C09F09CFA011C201CEA
:103F500009F092FA0D99041C281C09F093FA0B99A8
:103F600009F08AFA391C051C301C09F08BFA011C77
:103F7000281C09F081FA1499051C049809F082FAAA
:103F8000109B061C1299181C984609F07BFA011C1C
:103F9000301C09F06EFA1199061C404609F072FABD
:103FA0001399071C049809F06DFA011C381C09F0DC
:103FB00060FA311C071C201C09F05EFA039B391CB7
:103FC0001860281C09F058FA039B311C5860201C0B
:103FD00009F04FFA059C391C2060281C09F049FAA9
:103FE0006060082022008446039B08320833039354
:103FF000069B08990833099F0592079A0693169B1A
:10400000103218312037E144E244E344079208912A
:1040100009974B4500D060E61BB03CBC90469946E2
:10402000A246AB46F0BDEB00C8465C46A94635004B
:104030000E00039353460193434631000093200042
:1040400001233A00FEF7ACFF039B08369C4664440C
:10405000A542EFD14D46032F00D00CE62B0052466F
:104060002133DB00D2185268093B099284225200A6
:10407000524491465A46FF3BD4189A464B46079500
:104080005D46CB46A24403932368676898465B4627
:104090001E685B68311C4046994609F0F3F94946B1
:1040A0000490381C09F0EEF9011C049809F0E1F9BC
:1040B00049460490404609F0E5F9391C8046301C19
:1040C00009F0E0F9011C404609F0D6F953461B6897
:1040D00052469846039B57681E685A68311C0590E3
:1040E0004046914609F0CEF949460690381C09F041
:1040F000C9F9011C069809F0BCF9494606904046EA
:1041000009F0C0F9391C8046301C09F0BBF9011CCC
:10411000404609F0B1F90699061C049809F0ACF97B
:10412000311C81460598089609F0A6F908229446A4
:10413000039B804610332868E344039309F05EFA3A
:10414000060048460F0009F059FA00222E4B07F0EE
:10415000B7FF02000B003000390007F096FF08F0AF
:10416000B3F82060686809F049FA060040460F007D
:1041700009F044FA0022244B07F0A2FF02000B00D2
:104180003000390007F081FF08F09EF80699606062
:10419000049809F06EF9099F391C09F073F9089920
:1041A000061C059809F065F9391C09F06BF94946B8
:1041B000071C286809F060F941462860686809F022
:1041C0005BF968602068391C09F056F9534618609D
:1041D0006068311C09F04DF9534658602068391C5D
:1041E00009F047F9311C2060606809F045F90822A0
:1041F0009446079B6060013B083507930834E2440E
:10420000002B00D040E707E70000E03F0368D8003C
:10421000FEF716FA52469668D26884461500754332
:10422000ED000300169003926544012A00D02BE2B2
:1042300006CC06C39D42FBD1032E00D1A0E300DCD7
:1042400034E2042E01D100F07EFC052E01D000F0F6
:1042500072FC5146169E0398B4460931C300FF31E3
:10426000CA1814689C440E945468D21804941468B4
:1042700052680F9464469C44109262469C44039298
:1042800062460592D518002800DC62E2EA1853461F
:1042900018935B46A946A246B34606911792099128
:1042A0000891079119935B4651465A461B680E6860
:1042B0000A93069B52681C684D68301C211C5F687D
:1042C0000B9209F0DFF8391C8046281C09F0DAF857
:1042D000011C404609F0CDF8391C1190301C09F042
:1042E000D1F8291C061C201C09F0CCF8011C301C3C
:1042F00009F0C2F8039B079A1E6814681290211CEB
:10430000301C5D68576809F0BDF8391C8046281CD0
:1043100009F0B8F8011C404609F0ABF8391C1390BD
:10432000301C09F0AFF8291C061C201C09F0AAF863
:10433000011C301C09F0A0F8059A041C116857688C
:104340008846089940460D684E68291C0C9609F06D
:1043500099F80C99061C381C09F094F8011C301CC3
:1043600009F087F80C99061C404609F08BF8391CB7
:104370008046281C09F086F84F46011C404609F08B
:104380007BF83F68051C381C099F149039687F68CA
:104390008846494649680D970C91414609F072F8E4
:1043A0000D99071C0C9809F06DF8011C381C09F0D8
:1043B00060F80D99071C149809F064F80C990D9099
:1043C000404609F05FF8011C0D9809F055F8391CBA
:1043D0008046119809F050F841460C90129809F067
:1043E0004BF8391C0D90119809F043F84146119093
:1043F000129809F03EF8311C1290139809F03CF81D
:10440000291C8046201C09F037F8311C071C139822
:1044100009F02FF8291C1390201C09F02AF80C9C95
:1044200041461490201C09F027F80A9E5D46311C75
:1044300009F022F8391C28600D9809F01DF80B9935
:1044400009F01AF868600E9D211C281C0C9409F0D4
:1044500019F8311C0A9609F00FF84146041C0F9810
:1044600009F010F8011C201C09F006F80D99061C33
:10447000281C0E9509F006F80B9908F0FDFF391C71
:10448000041C0F9808F0FEFF011C201C08F0F4FF2C
:104490001299051C049808F0F5FF1499041C109853
:1044A00008F0F0FF011C201C08F0E6FF80241199A1
:1044B0001590049808F0E6FF240604191399109843
:1044C00008F0E0FF011C201C08F0D3FF1599041C24
:1044D000301C08F0CEFF5246211C1060281C08F04A
:1044E000C8FF524615995060301C08F0C5FF4E4673
:1044F000211C3060281C08F0BFFF0F9D70600C99D4
:10450000281C08F0BFFF0A9908F0B6FF0E9E041C95
:104510004146301C08F0B6FF011C201C08F0ACFF1F
:104520000D99041C281C08F0ADFF0B9908F0A4FF9E
:10453000391C051C301C08F0A5FF011C281C08F0C4
:104540009BFF1499051C049808F09CFF109B061C07
:104550001299181C984608F095FF011C301C08F0B1
:1045600088FF1199061C404608F08CFF1399071C20
:10457000049808F087FF011C381C08F07AFF311CF2
:10458000071C201C08F078FF039B391C1860281CAE
:1045900008F072FF039B311C5860201C08F069FF73
:1045A000059C391C2060281C08F063FF606008200F
:1045B00022008446039B083208330393069B089924
:1045C0000833099F0592079A0693179B10321831FA
:1045D0002037E144E344E244079208910997994562
:1045E00000D060E6189B9A46199B9B46B1E0022FCB
:1045F00000D0BAE05646EC00A9465D460936FF36C3
:104600005C44236872689A463368504698466368EB
:1046100041469346039308F035FF5946071C03981B
:1046200008F030FF011C381C08F023FF5946071C16
:10463000504608F027FF03998246404608F022FFC3
:10464000011C504608F018FF391C8046286808F005
:1046500010FF20606868414608F00BFF6060286822
:10466000391C08F009FF41462860686808F004FF1B
:1046700001235B429C46E1444B466860083608349F
:104680000835002BBDD1C7E4D3009846169F53468A
:1046900001934B4621000093380001233200474428
:1046A000FEF77EFC0834BD42F1D1C5E5022E00D0F4
:1046B00041E2039B169CDD0053465646A4460493F4
:1046C0005B460936FF36654405932B689A46336886
:1046D000504698466B6841469946736808369B4633
:1046E00008F0D0FE5946071C484608F0CBFE011CD6
:1046F000381C08F0BEFE5946071C504608F0C2FEA2
:1047000049468246404608F0BDFE011C504608F06E
:10471000B3FE391C8046206808F0ABFE2860606854
:10472000414608F0A6FE68602068391C08F0A4FE27
:1047300041462060606808F09FFE039B6060013B7B
:10474000083508340393002BBFD1049B9A46059B80
:104750009B465346169C1A682100D200584609F021
:1047600013F82000FDF774FF56E400972B00524623
:1047700001215846FEF764FB4EE451464968EB00C0
:104780000D915946842299460B95CD18EE1852008A
:104790005244B1445C460592CB4603920492B24621
:1047A000A94613E04B461E6058605B46069A1A60A5
:1047B00042465A60082294460B9B0834013B0B93F7
:1047C000E144E244E344002B00D125E44B461E685B
:1047D000059B311C1A685D6890464A4640465768FA
:1047E00008F050FE391C0690281C08F04BFE011CF6
:1047F000069808F03EFE41460690381C08F042FE3E
:10480000311C071C281C08F03DFE011C381C08F058
:1048100033FE52461668049A079011685568884618
:10482000514640464F68311C08F02CFE391C089058
:10483000281C08F027FE011C089808F01AFE4146C3
:104840000890381C08F01EFE311C071C281C08F0BC
:1048500019FE011C381C08F00FFE59465E460F6811
:10486000039976680D68B04609904E68281C391C7B
:104870000A9508F007FE4146051C301C08F002FEB0
:10488000011C281C08F0F5FD0A99051C404608F09B
:10489000F9FD391C8046301C08F0F4FD011C40462F
:1048A00008F0EAFD2668071C0899301C0C9608F0F1
:1048B000E0FD6268061C0999101C904608F0D9FDBD
:1048C00008990A900C9808F0D7FD09990C9020607F
:1048D000404608F0D1FD069909906060281C08F058
:1048E000CBFD07990890381C08F0C6FD291C8046AE
:1048F000069808F0BEFD391C051C079808F0B9FDA4
:104900000899071C0C9808F0B4FD52464146106007
:10491000099808F0AEFD5246059B5060049A083392
:10492000103205930492039B08991833206803936F
:1049300008F0A2FD41462060606808F09DFD311C32
:104940006060381C08F098FD291C06900A9808F051
:1049500090FD391C8046301C08F08BFD0A99061C1E
:10496000281C08F089FD0D9B002B00D01AE74B4650
:10497000069A1A6042465A605B461E60586019E704
:104980005246039B169908932133DB00D218093B4A
:10499000FF3BCC189946534652680A9309928422E9
:1049A0005B460D00520052440392A14404920B93C3
:1049B000236867689846039B40461E685A68311C06
:1049C000924608F05FFD51468346381C08F05AFDB8
:1049D000011C584608F04DFD51460590404608F030
:1049E00051FD391C8046301C08F04CFD011C40462E
:1049F00008F042FD4A46494612684F689046049ABC
:104A000006901668516840468B46311C08F03AFD06
:104A100059468246381C08F035FD011C504608F006
:104A200028FD59468246404608F02CFD391C804638
:104A3000301C08F027FD011C404608F01DFD5146C2
:104A40008046059808F018FD41468346069808F010
:104A500013FD039B049A08331032079028680393D0
:104A6000049208F0CBFD060058460F0008F0C6FD82
:104A70000022BB4B07F024FB02000B003000390082
:104A800007F003FB07F020FC2060686808F0B6FD23
:104A9000060007980F0008F0B1FD0022B04B07F0A8
:104AA0000FFB02000B003000390007F0EEFA07F0B0
:104AB0000BFC51466060059808F0DBFC099F391C2F
:104AC00008F0E0FC4146061C069808F0D2FC391CB0
:104AD00008F0D8FC5946071C286808F0CDFC079957
:104AE0002860686808F0C8FC68602068391C08F015
:104AF000C3FC4B4618606068311C08F0BAFC4B469A
:104B000058602068391C08F0B4FC311C20606068D3
:104B100008F0B2FC08229446089B6060013B08350F
:104B200008930834E144002B00D041E70A9B9A46E1
:104B30000B9B9B460DE60096039B5246012116985F
:104B4000FEF77EF905E68422169E5146B1465200D4
:104B50005244039B059203920492524649680B9378
:104B6000DB0099440D9149460E925A46CD18EB1838
:104B7000CB46AA460F92994613E05B461D605860EB
:104B80004B46069A1A6042465A60082294460B9B8E
:104B90000836013B0B93E344E244E144002B00D18F
:104BA000D9E05B461D68059B291C1A685C68904625
:104BB0005A464046576808F065FC391C0690201C90
:104BC00008F060FC011C069808F053FC4146069072
:104BD000381C08F057FC291C071C201C08F052FC4C
:104BE000011C381C08F048FC52461568049A0790CE
:104BF000116854688846514640464F68291C08F0A1
:104C000041FC391C0890201C08F03CFC011C089851
:104C100008F02FFC41460890381C08F033FC291C92
:104C2000071C201C08F02EFC011C381C08F024FC7A
:104C300049464D460F6803996D680C68A84609906F
:104C40004D68201C391C0A9408F01CFC4146041CC9
:104C5000281C08F017FC011C201C08F00AFC0A990B
:104C6000041C404608F00EFC391C8046281C08F045
:104C700009FC011C404608F0FFFB3568071C089939
:104C8000281C0C9508F0F5FB7268051C0999101C8E
:104C9000904608F0EEFB08990A900C9808F0ECFB9F
:104CA00009990C903060404608F0E6FB069909909F
:104CB0007060201C08F0E0FB07990890381C08F091
:104CC000DBFB211C8046069808F0D3FB391C041C32
:104CD000079808F0CEFB0899071C0C9808F0C9FB50
:104CE000524641461060099808F0C3FB5246059BA6
:104CF0005060049A0833103205930492039B08997C
:104D000018333068039308F0B7FB41463060706891
:104D100008F0B2FB291C7060381C08F0ADFB211CA8
:104D200006900A9808F0A5FB391C8046281C08F05C
:104D3000A0FB0A99051C201C08F09EFB0D9B002B74
:104D400000D01AE75B46069A1A6042465A604B4604
:104D50001D60586019E70E9B9A460F9B9B46F8E42E
:104D60000000E03FF0B5454657464E46DE46E0B50A
:104D70001D00002389B00793013303400F00160084
:104D80009846002B00D0A8E044100093002207AB07
:104D90002000FEF789FC62001219D30F9B18079AB6
:104DA0005B10DB000C329B180393002D00D18FE0C9
:104DB0001A002B68934200D29AE0B3462A605B4601
:104DC000002B4DD05A4659460C321A60079B2000E2
:104DD000D3184B60E1005B1859468B600023390003
:104DE000009307ABFEF760FCE30F1B195B109A46BC
:104DF000002F3DD0002B2EDD200007F0D9F95B46B7
:104E00009B6806000F00994601239C46E0444046FB
:104E100007F0CEF932003B0007F049F90022364B8B
:104E200007F03CF9354A364B07F04AF904000D000B
:104E300007F06CFA07F048FA4B462900186020008A
:104E400007F07AFA07F040FA4B46586008239C4670
:104E5000E144D045D8D1129B002B01D0039A1A60AF
:104E6000584609B03CBC90469946A246AB46F0BDB8
:104E7000002BF0DD200007F09BF95B469B68049057
:104E8000059198460137380007F092F9049A059B7E
:104E900007F00DF90022184B07F000F9174A194BDB
:104EA00007F00EF904000D0007F030FA07F00CFAD5
:104EB000434629001860200007F03EFA07F004FA84
:104EC0004346586008239C46E0445745DAD1C2E780
:104ED0001800FDF7B5FB834671E70B4B24221B68D6
:104EE0000121DB6809480BF067F900239B46B7E70F
:104EF00000232A609B46B3E70000E03F182D44548E
:104F0000FB210940FB2109C0300600207C44011030
:104F1000F0B557464546DE464E46E0B50700006808
:104F200087B043681500002B00D0A4E07A680468BD
:104F3000FEF780FE7B68E60098461B689A4643466B
:104F40005B685046191C9B4608F096FAAB199946C7
:104F500028605946504608F08CFA4B464A4618607D
:104F600000236B605360E30F1B195B10002B7BDD8C
:104F700032004446083AB9682E0090448B464746B2
:104F80000834DB00E3180836AD18059323687A6807
:104F90009A466368514699463B689046181C0193AF
:104FA00008F06AFA41460290484608F062FA019910
:104FB0000490504608F05DFA49468246404608F0A3
:104FC0005BFA5B465A461B685268191C814650467C
:104FD0000192039308F056FA01998046484608F07A
:104FE00051FA011C404608F044FA019980465046A7
:104FF00008F048FA03998246484608F043FA011C33
:10500000504608F039FA41468146029808F034FAD1
:10501000FC21890508F036FA049B3060191C4846CB
:105020009A4608F029FAFC21890508F02BFA414636
:105030007060029808F01DFAFC21890508F022FA38
:1050400051462860484608F014FAFC21890508F00A
:1050500019FA08239C466860059B0834083FE3441E
:105060000836083DA34291D107B03CBC9046994612
:10507000A246AB46F0BD054B25221B680121DB682B
:1050800003480BF099F8012004F0DCFA3006002008
:10509000544401100B2803D8024B8000C0587047BD
:1050A0000148FCE7A4440110D4440110F8B51500F0
:1050B0001C000022002306000F0007F043F8002820
:1050C00003D000232B602360F8BD2200300039009C
:1050D0000EF016FF0022114B06F0F2FF07F07EF9EA
:1050E00007F0C6F8002917DC12D0802223681206C8
:1050F000904206D01F3302DA00230020236028608C
:10510000E2E70029F6D1802001332360C005F1E7F2
:1051100080231B069842E8D90AF0BCFF0000E0415A
:10512000F0B583B0009201931F23040001200D000D
:1051300008995B1A984007F03BF8009A019B06001B
:105140000F002000290006F0BBFF02000B0030001A
:10515000390006F0B5FF294A294B04000D0007F07D
:105160000FF8061E15D10022264B2000290007F05B
:1051700007F8002832D0002200232000290006F082
:10518000E1FF002807D0099B1E600A9B1E6003B048
:10519000F0BD1A4C1A4D0A9A200029000EF0B0FEFC
:1051A0000022194B06F08CFF07F018F907F060F8A1
:1051B000002913DC1CD080220A9B12061B68904237
:1051C0000ED01A001F3205DA00230A9A1360099ADA
:1051D0001360DCE7099A1060002BD8DA0AF05AFF56
:1051E0000029EED180200A9A01331360C005E8E758
:1051F00080231B069842DED9F0E7C0460000C0FFBE
:10520000FFFFDF410000F03F0000E041F8B5CE466F
:10521000012381464746180098464B46984080B582
:10522000013816000F0006F0C3FF4B46F21A202388
:105230005B4204000D00D31826D441469940012654
:105240003000904007F008F80B0002002900200011
:1052500006F036FF20235B4204000D00FB1818D433
:10526000310099400120B84006F0F6FF02000B0023
:105270002000290006F01BFF07F002F906F0B0FF3E
:105280000CBC90469946F8BD202341469B1AD94054
:10529000D5E720233100DB1BD940E3E7F0B5CE464C
:1052A000474680B51C00CB6883B09846D36805009C
:1052B0009946002C39D0404608F0A0F9060048462F
:1052C0000F0008F09BF902000B003000390006F0D7
:1052D000F7FE0600E0680F0008F090F902000B00EE
:1052E0003000390006F0D1FE0A9B0600D8684C0059
:1052F00008F084F9640802000B003000210006F079
:10530000D6FE1B4A1B4B06F02BFF00280DD11A4B73
:1053100000939A236C692800184A1949A047012074
:1053200003B00CBC90469946F0BD4946404608F093
:10533000A9F80021041C08F0E9F8002804D1114B59
:1053400000936C69A723E6E7201C08F057F90A9B35
:105350000400D8680D0008F051F90B000200290084
:10536000200006F0A4FE0B9B186059600020D7E7D0
:105370007B14AE47E17A943FC445011048450110C3
:10538000AC450110E8450110F0B5C64600B51C005B
:10539000137882B0032B20D0092B0DD0072B61D0BE
:1053A000334B344A00934469DA233349A047012040
:1053B00002B004BC9046F0BD80257F266D42D368C4
:1053C0001769984601290FD003293BD002291CD028
:1053D000089B256000201E60EAE7D368FF260025B1
:1053E000984617690129EFD1191C002008F047F8E9
:1053F00008F058F908F0CAF8C719AF4200DA2F00D0
:10540000089B276000201E60D2E7191C1B4808F08B
:1054100036F808F047F908F0B9F8C019A84224DBBB
:105420002060FE204146800508F029F808F03AF98E
:1054300008F0ACF8C719B74200DD3700089B002020
:105440001F60B5E7191C002008F019F808F02AF9C8
:1054500008F09CF8C019A84200DA280020604146F4
:105460000748E1E7074E084DA9E72800D8E7C046FE
:105470000446011048450110AC450110000080BFF2
:105480000000C040FF7F00000080FFFF002200B549
:1054900083B00192836B01AA14219847012802D09E
:1054A000019803B000BD0020FBE7C046F0B5C6463A
:1054B0000E6800B573688268070030689D0188B087
:1054C00055190023022804DDF068441C01D0830133
:1054D000D318486844682878A401844614192078B1
:1054E00060450ED1B668B6019219167886421DD075
:1054F00038007B6921499847012008B004BC9046D8
:10550000F0BD60467D69FFF7C5FD06002078FFF716
:10551000C1FD1B4B039001931A4B38000093029678
:10552000194B1A4A1A49A8470120E6E70020012E24
:10553000E3D00E694969002009780094884600216B
:105540000690079106A9019138002900FFF7A6FEF1
:105550000028D2D10698079905AB3200FFF7A6FDC7
:10556000059B22005B42736033000C3608330096C3
:1055700041463800FFF708FFBFE7C046CC460110A0
:10558000B0460110C0460110EF020000284601108D
:1055900094460110F0B54E464546DE465746E0B506
:1055A000A3B01E002C9C2D9D012A43D0032A00D1BC
:1055B00030E1022A00D141E1A84B9B46A84B02935F
:1055C000002E3DD10A96002C51D0A76811A808CF13
:1055D0009A0010939146052B07DDA24A4846934254
:1055E00000DD22E108F0DAF811904A46390008F0AF
:1055F000CBF863680693002D3ED100239A46109B9A
:10560000169508932E9B002B50D108991C93079355
:105610000133059300208B1E4A1E052974DC10AC53
:10562000A4469B00920063446244596853680994FD
:10563000039371E0894B9B4600230293002EC1D057
:10564000B7680BA808CF9A000A939146052B07DD8F
:10565000844A4846934200DDE1E008F09FF80B9051
:105660004A46390008F090F87668002CADD1002346
:1056700010940693002DC0D0AC6817A808CC1693E0
:105680009F00052B07DD774A3800934200DDD2E00A
:1056900008F084F817903A00210008F075F86B685C
:1056A0009A46109B08932E9B002BAED09C681DA899
:1056B00008CC1C939D00052B08DD6A4A2800934204
:1056C00001DD0120404208F069F81D9021002A0008
:1056D00008F05AF82E9B58681C9B0793591E052BFF
:1056E00000DCB1E01F001D9A01231C000023994239
:1056F00004D020CA01336C439F42F8D10594089925
:105700008B1E4A1E05298ADD10AA0992119A9B0058
:10571000D158D3185B680393059B002B4BDD002900
:1057200049DD8B000193039BB0469F00002300904E
:10573000049300239946069E039B002B68DD0024FA
:10574000002543463159185907F09CFE011C281CBE
:1057500007F092FE0434051CA742F2D15346002BF9
:1057600054D04A469858291C07F086FE029D041C16
:10577000291C07F0BDFE002800D02C1C5946201C17
:1057800007F0CCFE009B4A4600283DD05946995070
:1057900004239C46019BE144F6194B45CCD1019969
:1057A000009A8C46049B62440092059A013304934C
:1057B000B8449342BDD1079B052B04DD1D980028FA
:1057C00001D007F0F3FF169B052B04DD1798002886
:1057D00001D007F0EBFF089B052B05DD099B5868FE
:1057E000002801D007F0E2FF0A9B052B04DD0B988F
:1057F000002801D007F0DAFF002023B03CBC90461F
:105800009946A246AB46F0BD9C50C1E70020AAE7EE
:105810000025A3E7144B9B46002302930EE70120CB
:10582000404207F0BBFF0B901AE70120404207F00F
:10583000B5FF1190D9E60120404229E7FE239B05E0
:105840009B460A4B0293F9E601230593079B002B25
:1058500000DC54E71DAA1F0046E7C046FFFF7F7F1C
:10586000FFFF7FFFFEFFFF1F0000C040000080BF62
:10587000F0B557464E464546DE460B68E0B58268B1
:1058800005005868BBB0840198681419870100208E
:1058900081461868D719022805DDDB68581C02D03C
:1058A0009B019946914490464B6820785B689B0128
:1058B00098440B69032820D0092800D17EE10128F3
:1058C0000FD06E69FFF7E6FB23780200B949280084
:1058D000B04701203BB03CBC90469946A246AB463F
:1058E000F0BD4B6928001A78434602934B46009757
:1058F00001932300FFF74EFEECE73A692669149204
:105900004246126904921A6807925A6892465242B5
:1059100010929A68DB6808929B46434618780328E1
:1059200000D187E2072800D0B0E3A56823A82B6840
:10593000990022930591052B08DD9F4A08009342A8
:1059400001DD0120404207F029FF2390291D059A1F
:1059500007F01AFF6368BC680593236829A8289399
:105960009D00052B08DD944A2800934201DD0120AB
:10597000404207F013FF2990211D2A0007F004FF81
:105980007B6818934B46002B01D100F02EFC9C68DD
:105990002FA808CC2E939D00052B08DD864A2800F1
:1059A000934201DD0120404207F0F8FE2F902A00CB
:1059B000210007F0E9FE4B465B6817932E9B21936D
:1059C00043469C6835A808CC34939D00052B08DD20
:1059D000794A2800934201DD0120404207F0DEFEB3
:1059E00035902A00210007F0CFFE4346289A5868D8
:1059F000349B20921F93591E052B01DC00F005FCFF
:105A00001F00359A01240023994204D020CA013393
:105A10006C43BB42F8D1209916948B1E4A1E05296F
:105A200000DCE7E328AA1C92299A9B00D158D318DE
:105A30005B689946169B002B00DCA6E05346DB43CF
:105A40005246DB171A4001239340013B09920E9303
:105A50005A105B005B080D921293002900DC94E061
:105A60004B00179A1D93059B890094469A460B009C
:105A700063440A9300231593079B089ADB17059349
:105A8000049B4D46D21A0B925A46D31A0C93109B84
:105A90001190DB43DB171E9373429BB29B461E9A09
:105AA000109B189E13400893119B5A469946179BCA
:105AB000CB469846149BC1465F42BFB2B846069299
:105AC0004B461C68002D12DD00214046069F735C8A
:105AD000C3181BB29C46534662465B5C0131FB18FF
